{
  "contractName": "AccessToken",
  "abi": [
    {
      "inputs": [],
      "stateMutability": "nonpayable",
      "type": "constructor"
    },
    {
      "anonymous": false,
      "inputs": [
        {
          "indexed": true,
          "internalType": "address",
          "name": "owner",
          "type": "address"
        },
        {
          "indexed": true,
          "internalType": "address",
          "name": "approved",
          "type": "address"
        },
        {
          "indexed": true,
          "internalType": "uint256",
          "name": "tokenId",
          "type": "uint256"
        }
      ],
      "name": "Approval",
      "type": "event"
    },
    {
      "anonymous": false,
      "inputs": [
        {
          "indexed": true,
          "internalType": "address",
          "name": "owner",
          "type": "address"
        },
        {
          "indexed": true,
          "internalType": "address",
          "name": "operator",
          "type": "address"
        },
        {
          "indexed": false,
          "internalType": "bool",
          "name": "approved",
          "type": "bool"
        }
      ],
      "name": "ApprovalForAll",
      "type": "event"
    },
    {
      "anonymous": false,
      "inputs": [
        {
          "indexed": true,
          "internalType": "bytes32",
          "name": "role",
          "type": "bytes32"
        },
        {
          "indexed": true,
          "internalType": "bytes32",
          "name": "previousAdminRole",
          "type": "bytes32"
        },
        {
          "indexed": true,
          "internalType": "bytes32",
          "name": "newAdminRole",
          "type": "bytes32"
        }
      ],
      "name": "RoleAdminChanged",
      "type": "event"
    },
    {
      "anonymous": false,
      "inputs": [
        {
          "indexed": true,
          "internalType": "bytes32",
          "name": "role",
          "type": "bytes32"
        },
        {
          "indexed": true,
          "internalType": "address",
          "name": "account",
          "type": "address"
        },
        {
          "indexed": true,
          "internalType": "address",
          "name": "sender",
          "type": "address"
        }
      ],
      "name": "RoleGranted",
      "type": "event"
    },
    {
      "anonymous": false,
      "inputs": [
        {
          "indexed": true,
          "internalType": "bytes32",
          "name": "role",
          "type": "bytes32"
        },
        {
          "indexed": true,
          "internalType": "address",
          "name": "account",
          "type": "address"
        },
        {
          "indexed": true,
          "internalType": "address",
          "name": "sender",
          "type": "address"
        }
      ],
      "name": "RoleRevoked",
      "type": "event"
    },
    {
      "anonymous": false,
      "inputs": [
        {
          "indexed": true,
          "internalType": "address",
          "name": "from",
          "type": "address"
        },
        {
          "indexed": true,
          "internalType": "address",
          "name": "to",
          "type": "address"
        },
        {
          "indexed": true,
          "internalType": "uint256",
          "name": "tokenId",
          "type": "uint256"
        }
      ],
      "name": "Transfer",
      "type": "event"
    },
    {
      "inputs": [],
      "name": "DEFAULT_ADMIN_ROLE",
      "outputs": [
        {
          "internalType": "bytes32",
          "name": "",
          "type": "bytes32"
        }
      ],
      "stateMutability": "view",
      "type": "function"
    },
    {
      "inputs": [],
      "name": "MINTER_ROLE",
      "outputs": [
        {
          "internalType": "bytes32",
          "name": "",
          "type": "bytes32"
        }
      ],
      "stateMutability": "view",
      "type": "function"
    },
    {
      "inputs": [],
      "name": "REGISTRAR_ROLE",
      "outputs": [
        {
          "internalType": "bytes32",
          "name": "",
          "type": "bytes32"
        }
      ],
      "stateMutability": "view",
      "type": "function"
    },
    {
      "inputs": [
        {
          "internalType": "address",
          "name": "to",
          "type": "address"
        },
        {
          "internalType": "uint256",
          "name": "tokenId",
          "type": "uint256"
        }
      ],
      "name": "approve",
      "outputs": [],
      "stateMutability": "nonpayable",
      "type": "function"
    },
    {
      "inputs": [
        {
          "internalType": "address",
          "name": "owner",
          "type": "address"
        }
      ],
      "name": "balanceOf",
      "outputs": [
        {
          "internalType": "uint256",
          "name": "",
          "type": "uint256"
        }
      ],
      "stateMutability": "view",
      "type": "function"
    },
    {
      "inputs": [
        {
          "internalType": "uint256",
          "name": "tokenId",
          "type": "uint256"
        }
      ],
      "name": "getApproved",
      "outputs": [
        {
          "internalType": "address",
          "name": "",
          "type": "address"
        }
      ],
      "stateMutability": "view",
      "type": "function"
    },
    {
      "inputs": [
        {
          "internalType": "bytes32",
          "name": "role",
          "type": "bytes32"
        }
      ],
      "name": "getRoleAdmin",
      "outputs": [
        {
          "internalType": "bytes32",
          "name": "",
          "type": "bytes32"
        }
      ],
      "stateMutability": "view",
      "type": "function"
    },
    {
      "inputs": [
        {
          "internalType": "bytes32",
          "name": "role",
          "type": "bytes32"
        },
        {
          "internalType": "address",
          "name": "account",
          "type": "address"
        }
      ],
      "name": "grantRole",
      "outputs": [],
      "stateMutability": "nonpayable",
      "type": "function"
    },
    {
      "inputs": [
        {
          "internalType": "bytes32",
          "name": "role",
          "type": "bytes32"
        },
        {
          "internalType": "address",
          "name": "account",
          "type": "address"
        }
      ],
      "name": "hasRole",
      "outputs": [
        {
          "internalType": "bool",
          "name": "",
          "type": "bool"
        }
      ],
      "stateMutability": "view",
      "type": "function"
    },
    {
      "inputs": [
        {
          "internalType": "address",
          "name": "owner",
          "type": "address"
        },
        {
          "internalType": "address",
          "name": "operator",
          "type": "address"
        }
      ],
      "name": "isApprovedForAll",
      "outputs": [
        {
          "internalType": "bool",
          "name": "",
          "type": "bool"
        }
      ],
      "stateMutability": "view",
      "type": "function"
    },
    {
      "inputs": [],
      "name": "name",
      "outputs": [
        {
          "internalType": "string",
          "name": "",
          "type": "string"
        }
      ],
      "stateMutability": "view",
      "type": "function"
    },
    {
      "inputs": [
        {
          "internalType": "uint256",
          "name": "tokenId",
          "type": "uint256"
        }
      ],
      "name": "ownerOf",
      "outputs": [
        {
          "internalType": "address",
          "name": "",
          "type": "address"
        }
      ],
      "stateMutability": "view",
      "type": "function"
    },
    {
      "inputs": [
        {
          "internalType": "bytes32",
          "name": "role",
          "type": "bytes32"
        },
        {
          "internalType": "address",
          "name": "account",
          "type": "address"
        }
      ],
      "name": "renounceRole",
      "outputs": [],
      "stateMutability": "nonpayable",
      "type": "function"
    },
    {
      "inputs": [
        {
          "internalType": "bytes32",
          "name": "role",
          "type": "bytes32"
        },
        {
          "internalType": "address",
          "name": "account",
          "type": "address"
        }
      ],
      "name": "revokeRole",
      "outputs": [],
      "stateMutability": "nonpayable",
      "type": "function"
    },
    {
      "inputs": [
        {
          "internalType": "address",
          "name": "from",
          "type": "address"
        },
        {
          "internalType": "address",
          "name": "to",
          "type": "address"
        },
        {
          "internalType": "uint256",
          "name": "tokenId",
          "type": "uint256"
        }
      ],
      "name": "safeTransferFrom",
      "outputs": [],
      "stateMutability": "nonpayable",
      "type": "function"
    },
    {
      "inputs": [
        {
          "internalType": "address",
          "name": "from",
          "type": "address"
        },
        {
          "internalType": "address",
          "name": "to",
          "type": "address"
        },
        {
          "internalType": "uint256",
          "name": "tokenId",
          "type": "uint256"
        },
        {
          "internalType": "bytes",
          "name": "_data",
          "type": "bytes"
        }
      ],
      "name": "safeTransferFrom",
      "outputs": [],
      "stateMutability": "nonpayable",
      "type": "function"
    },
    {
      "inputs": [
        {
          "internalType": "address",
          "name": "operator",
          "type": "address"
        },
        {
          "internalType": "bool",
          "name": "approved",
          "type": "bool"
        }
      ],
      "name": "setApprovalForAll",
      "outputs": [],
      "stateMutability": "nonpayable",
      "type": "function"
    },
    {
      "inputs": [],
      "name": "symbol",
      "outputs": [
        {
          "internalType": "string",
          "name": "",
          "type": "string"
        }
      ],
      "stateMutability": "view",
      "type": "function"
    },
    {
      "inputs": [
        {
          "internalType": "uint256",
          "name": "tokenId",
          "type": "uint256"
        }
      ],
      "name": "tokenURI",
      "outputs": [
        {
          "internalType": "string",
          "name": "",
          "type": "string"
        }
      ],
      "stateMutability": "view",
      "type": "function"
    },
    {
      "inputs": [
        {
          "internalType": "address",
          "name": "from",
          "type": "address"
        },
        {
          "internalType": "address",
          "name": "to",
          "type": "address"
        },
        {
          "internalType": "uint256",
          "name": "tokenId",
          "type": "uint256"
        }
      ],
      "name": "transferFrom",
      "outputs": [],
      "stateMutability": "nonpayable",
      "type": "function"
    },
    {
      "inputs": [],
      "name": "accessGrant",
      "outputs": [
        {
          "internalType": "address",
          "name": "",
          "type": "address"
        }
      ],
      "stateMutability": "view",
      "type": "function"
    },
    {
      "inputs": [
        {
          "internalType": "address",
          "name": "to",
          "type": "address"
        },
        {
          "internalType": "uint256",
          "name": "accessGrantId",
          "type": "uint256"
        }
      ],
      "name": "mint",
      "outputs": [],
      "stateMutability": "nonpayable",
      "type": "function"
    },
    {
      "inputs": [
        {
          "internalType": "uint256",
          "name": "tokenId",
          "type": "uint256"
        }
      ],
      "name": "burn",
      "outputs": [],
      "stateMutability": "nonpayable",
      "type": "function"
    },
    {
      "inputs": [
        {
          "internalType": "uint256",
          "name": "tokenId",
          "type": "uint256"
        }
      ],
      "name": "tokenProvider",
      "outputs": [
        {
          "internalType": "address",
          "name": "",
          "type": "address"
        }
      ],
      "stateMutability": "view",
      "type": "function"
    },
    {
      "inputs": [
        {
          "internalType": "bytes4",
          "name": "interfaceId",
          "type": "bytes4"
        }
      ],
      "name": "supportsInterface",
      "outputs": [
        {
          "internalType": "bool",
          "name": "",
          "type": "bool"
        }
      ],
      "stateMutability": "view",
      "type": "function"
    }
  ],
  "bytecode": "0x60806040523480156200001157600080fd5b506040518060400160405280600b81526020017f416363657373546f6b656e0000000000000000000000000000000000000000008152506040518060400160405280600b81526020017f414343455353544f4b454e000000000000000000000000000000000000000000815250816000908051906020019062000096929190620002e6565b508060019080519060200190620000af929190620002e6565b505050604051620000c09062000377565b604051809103906000f080158015620000dd573d6000803e3d6000fd5b50600960006101000a81548173ffffffffffffffffffffffffffffffffffffffff021916908373ffffffffffffffffffffffffffffffffffffffff160217905550620001336000801b336200016b60201b60201c565b620001657f9f2df0fed2c77648de5860a4cc508cd0818c85b8b8a1ab4ceeef8d981c8956a6336200016b60201b60201c565b62000409565b6200017d82826200018160201b60201c565b5050565b6200019382826200027360201b60201c565b6200026f5760016006600084815260200190815260200160002060000160008373ffffffffffffffffffffffffffffffffffffffff1673ffffffffffffffffffffffffffffffffffffffff16815260200190815260200160002060006101000a81548160ff02191690831515021790555062000214620002de60201b60201c565b73ffffffffffffffffffffffffffffffffffffffff168173ffffffffffffffffffffffffffffffffffffffff16837f2f8788117e7eff1d82e926ec794901d17c78024a50270940304540a733656f0d60405160405180910390a45b5050565b60006006600084815260200190815260200160002060000160008373ffffffffffffffffffffffffffffffffffffffff1673ffffffffffffffffffffffffffffffffffffffff16815260200190815260200160002060009054906101000a900460ff16905092915050565b600033905090565b828054620002f490620003a4565b90600052602060002090601f01602090048101928262000318576000855562000364565b82601f106200033357805160ff191683800117855562000364565b8280016001018555821562000364579182015b828111156200036357825182559160200191906001019062000346565b5b50905062000373919062000385565b5090565b613f048062003d6883390190565b5b80821115620003a057600081600090555060010162000386565b5090565b60006002820490506001821680620003bd57607f821691505b60208210811415620003d457620003d3620003da565b5b50919050565b7f4e487b7100000000000000000000000000000000000000000000000000000000600052602260045260246000fd5b61394f80620004196000396000f3fe608060405234801561001057600080fd5b50600436106101735760003560e01c80636352211e116100de578063b88d4fde11610097578063d547741f11610071578063d547741f1461045a578063e4fec16114610476578063e985e9c5146104a6578063f68e9553146104d657610173565b8063b88d4fde146103f0578063c87b56dd1461040c578063d53913931461043c57610173565b80636352211e1461030857806370a082311461033857806391d148541461036857806395d89b4114610398578063a217fddf146103b6578063a22cb465146103d457610173565b80632f2ff15d116101305780632f2ff15d1461025e57806336568abe1461027a5780633fe021fb1461029657806340c10f19146102b457806342842e0e146102d057806342966c68146102ec57610173565b806301ffc9a71461017857806306fdde03146101a8578063081812fc146101c6578063095ea7b3146101f657806323b872dd14610212578063248a9ca31461022e575b600080fd5b610192600480360381019061018d919061273f565b6104f4565b60405161019f9190612c26565b60405180910390f35b6101b0610506565b6040516101bd9190612c5c565b60405180910390f35b6101e060048036038101906101db9190612799565b610598565b6040516101ed9190612bbf565b60405180910390f35b610210600480360381019061020b9190612692565b61061d565b005b61022c6004803603810190610227919061257c565b610735565b005b610248600480360381019061024391906126d2565b610795565b6040516102559190612c41565b60405180910390f35b610278600480360381019061027391906126ff565b6107b5565b005b610294600480360381019061028f91906126ff565b6107de565b005b61029e610861565b6040516102ab9190612bbf565b60405180910390f35b6102ce60048036038101906102c99190612692565b61088b565b005b6102ea60048036038101906102e5919061257c565b6109e5565b005b61030660048036038101906103019190612799565b610a05565b005b610322600480360381019061031d9190612799565b610b53565b60405161032f9190612bbf565b60405180910390f35b610352600480360381019061034d91906124e2565b610c05565b60405161035f9190612ebe565b60405180910390f35b610382600480360381019061037d91906126ff565b610cbd565b60405161038f9190612c26565b60405180910390f35b6103a0610d28565b6040516103ad9190612c5c565b60405180910390f35b6103be610dba565b6040516103cb9190612c41565b60405180910390f35b6103ee60048036038101906103e99190612652565b610dc1565b005b61040a600480360381019061040591906125cf565b610f42565b005b61042660048036038101906104219190612799565b610fa4565b6040516104339190612c5c565b60405180910390f35b61044461104b565b6040516104519190612c41565b60405180910390f35b610474600480360381019061046f91906126ff565b61106f565b005b610490600480360381019061048b9190612799565b611098565b60405161049d9190612bbf565b60405180910390f35b6104c060048036038101906104bb919061253c565b61115f565b6040516104cd9190612c26565b60405180910390f35b6104de6111f3565b6040516104eb9190612c41565b60405180910390f35b60006104ff82611217565b9050919050565b60606000805461051590613171565b80601f016020809104026020016040519081016040528092919081815260200182805461054190613171565b801561058e5780601f106105635761010080835404028352916020019161058e565b820191906000526020600020905b81548152906001019060200180831161057157829003601f168201915b5050505050905090565b60006105a382611291565b6105e2576040517f08c379a00000000000000000000000000000000000000000000000000000000081526004016105d990612dbe565b60405180910390fd5b6004600083815260200190815260200160002060009054906101000a900473ffffffffffffffffffffffffffffffffffffffff169050919050565b600061062882610b53565b90508073ffffffffffffffffffffffffffffffffffffffff168373ffffffffffffffffffffffffffffffffffffffff161415610699576040517f08c379a000000000000000000000000000000000000000000000000000000000815260040161069090612e1e565b60405180910390fd5b8073ffffffffffffffffffffffffffffffffffffffff166106b86112fd565b73ffffffffffffffffffffffffffffffffffffffff1614806106e757506106e6816106e16112fd565b61115f565b5b610726576040517f08c379a000000000000000000000000000000000000000000000000000000000815260040161071d90612d3e565b60405180910390fd5b6107308383611305565b505050565b6107466107406112fd565b826113be565b610785576040517f08c379a000000000000000000000000000000000000000000000000000000000815260040161077c90612e3e565b60405180910390fd5b61079083838361149c565b505050565b600060066000838152602001908152602001600020600101549050919050565b6107be82610795565b6107cf816107ca6112fd565b6116f8565b6107d98383611795565b505050565b6107e66112fd565b73ffffffffffffffffffffffffffffffffffffffff168173ffffffffffffffffffffffffffffffffffffffff1614610853576040517f08c379a000000000000000000000000000000000000000000000000000000000815260040161084a90612e7e565b60405180910390fd5b61085d8282611876565b5050565b6000600960009054906101000a900473ffffffffffffffffffffffffffffffffffffffff16905090565b600960009054906101000a900473ffffffffffffffffffffffffffffffffffffffff1673ffffffffffffffffffffffffffffffffffffffff16636352211e826040518263ffffffff1660e01b81526004016108e69190612ebe565b60206040518083038186803b1580156108fe57600080fd5b505afa158015610912573d6000803e3d6000fd5b505050506040513d601f19601f82011682018060405250810190610936919061250f565b73ffffffffffffffffffffffffffffffffffffffff163373ffffffffffffffffffffffffffffffffffffffff16146109a3576040517f08c379a000000000000000000000000000000000000000000000000000000000815260040161099a90612e9e565b60405180910390fd5b6109b6826109b16007611958565b611966565b80600860006109c56007611958565b8152602001908152602001600020819055506109e16007611984565b5050565b610a0083838360405180602001604052806000815250610f42565b505050565b600960009054906101000a900473ffffffffffffffffffffffffffffffffffffffff1673ffffffffffffffffffffffffffffffffffffffff16636352211e60086000848152602001908152602001600020546040518263ffffffff1660e01b8152600401610a739190612ebe565b60206040518083038186803b158015610a8b57600080fd5b505afa158015610a9f573d6000803e3d6000fd5b505050506040513d601f19601f82011682018060405250810190610ac3919061250f565b73ffffffffffffffffffffffffffffffffffffffff163373ffffffffffffffffffffffffffffffffffffffff1614610b30576040517f08c379a0000000000000000000000000000000000000000000000000000000008152600401610b2790612e5e565b60405180910390fd5b610b398161199a565b600860008281526020019081526020016000206000905550565b6000806002600084815260200190815260200160002060009054906101000a900473ffffffffffffffffffffffffffffffffffffffff169050600073ffffffffffffffffffffffffffffffffffffffff168173ffffffffffffffffffffffffffffffffffffffff161415610bfc576040517f08c379a0000000000000000000000000000000000000000000000000000000008152600401610bf390612d7e565b60405180910390fd5b80915050919050565b60008073ffffffffffffffffffffffffffffffffffffffff168273ffffffffffffffffffffffffffffffffffffffff161415610c76576040517f08c379a0000000000000000000000000000000000000000000000000000000008152600401610c6d90612d5e565b60405180910390fd5b600360008373ffffffffffffffffffffffffffffffffffffffff1673ffffffffffffffffffffffffffffffffffffffff168152602001908152602001600020549050919050565b60006006600084815260200190815260200160002060000160008373ffffffffffffffffffffffffffffffffffffffff1673ffffffffffffffffffffffffffffffffffffffff16815260200190815260200160002060009054906101000a900460ff16905092915050565b606060018054610d3790613171565b80601f0160208091040260200160405190810160405280929190818152602001828054610d6390613171565b8015610db05780601f10610d8557610100808354040283529160200191610db0565b820191906000526020600020905b815481529060010190602001808311610d9357829003601f168201915b5050505050905090565b6000801b81565b610dc96112fd565b73ffffffffffffffffffffffffffffffffffffffff168273ffffffffffffffffffffffffffffffffffffffff161415610e37576040517f08c379a0000000000000000000000000000000000000000000000000000000008152600401610e2e90612cfe565b60405180910390fd5b8060056000610e446112fd565b73ffffffffffffffffffffffffffffffffffffffff1673ffffffffffffffffffffffffffffffffffffffff16815260200190815260200160002060008473ffffffffffffffffffffffffffffffffffffffff1673ffffffffffffffffffffffffffffffffffffffff16815260200190815260200160002060006101000a81548160ff0219169083151502179055508173ffffffffffffffffffffffffffffffffffffffff16610ef16112fd565b73ffffffffffffffffffffffffffffffffffffffff167f17307eab39ab6107e8899845ad3d59bd9653f200f220920489ca2b5937696c3183604051610f369190612c26565b60405180910390a35050565b610f53610f4d6112fd565b836113be565b610f92576040517f08c379a0000000000000000000000000000000000000000000000000000000008152600401610f8990612e3e565b60405180910390fd5b610f9e84848484611aab565b50505050565b6060610faf82611291565b610fee576040517f08c379a0000000000000000000000000000000000000000000000000000000008152600401610fe590612dfe565b60405180910390fd5b6000610ff8611b07565b905060008151116110185760405180602001604052806000815250611043565b8061102284611b1e565b604051602001611033929190612b61565b6040516020818303038152906040525b915050919050565b7f9f2df0fed2c77648de5860a4cc508cd0818c85b8b8a1ab4ceeef8d981c8956a681565b61107882610795565b611089816110846112fd565b6116f8565b6110938383611876565b505050565b6000600960009054906101000a900473ffffffffffffffffffffffffffffffffffffffff1673ffffffffffffffffffffffffffffffffffffffff16636352211e60086000858152602001908152602001600020546040518263ffffffff1660e01b81526004016111089190612ebe565b60206040518083038186803b15801561112057600080fd5b505afa158015611134573d6000803e3d6000fd5b505050506040513d601f19601f82011682018060405250810190611158919061250f565b9050919050565b6000600560008473ffffffffffffffffffffffffffffffffffffffff1673ffffffffffffffffffffffffffffffffffffffff16815260200190815260200160002060008373ffffffffffffffffffffffffffffffffffffffff1673ffffffffffffffffffffffffffffffffffffffff16815260200190815260200160002060009054906101000a900460ff16905092915050565b7fedcc084d3dcd65a1f7f23c65c46722faca6953d28e43150a467cf43e5c30923881565b60007f7965db0b000000000000000000000000000000000000000000000000000000007bffffffffffffffffffffffffffffffffffffffffffffffffffffffff1916827bffffffffffffffffffffffffffffffffffffffffffffffffffffffff1916148061128a575061128982611c7f565b5b9050919050565b60008073ffffffffffffffffffffffffffffffffffffffff166002600084815260200190815260200160002060009054906101000a900473ffffffffffffffffffffffffffffffffffffffff1673ffffffffffffffffffffffffffffffffffffffff1614159050919050565b600033905090565b816004600083815260200190815260200160002060006101000a81548173ffffffffffffffffffffffffffffffffffffffff021916908373ffffffffffffffffffffffffffffffffffffffff160217905550808273ffffffffffffffffffffffffffffffffffffffff1661137883610b53565b73ffffffffffffffffffffffffffffffffffffffff167f8c5be1e5ebec7d5bd14f71427d1e84f3dd0314c0f7b2291e5b200ac8c7c3b92560405160405180910390a45050565b60006113c982611291565b611408576040517f08c379a00000000000000000000000000000000000000000000000000000000081526004016113ff90612d1e565b60405180910390fd5b600061141383610b53565b90508073ffffffffffffffffffffffffffffffffffffffff168473ffffffffffffffffffffffffffffffffffffffff16148061148257508373ffffffffffffffffffffffffffffffffffffffff1661146a84610598565b73ffffffffffffffffffffffffffffffffffffffff16145b806114935750611492818561115f565b5b91505092915050565b8273ffffffffffffffffffffffffffffffffffffffff166114bc82610b53565b73ffffffffffffffffffffffffffffffffffffffff1614611512576040517f08c379a000000000000000000000000000000000000000000000000000000000815260040161150990612dde565b60405180910390fd5b600073ffffffffffffffffffffffffffffffffffffffff168273ffffffffffffffffffffffffffffffffffffffff161415611582576040517f08c379a000000000000000000000000000000000000000000000000000000000815260040161157990612cde565b60405180910390fd5b61158d838383611d61565b611598600082611305565b6001600360008573ffffffffffffffffffffffffffffffffffffffff1673ffffffffffffffffffffffffffffffffffffffff16815260200190815260200160002060008282546115e89190613053565b925050819055506001600360008473ffffffffffffffffffffffffffffffffffffffff1673ffffffffffffffffffffffffffffffffffffffff168152602001908152602001600020600082825461163f9190612f72565b92505081905550816002600083815260200190815260200160002060006101000a81548173ffffffffffffffffffffffffffffffffffffffff021916908373ffffffffffffffffffffffffffffffffffffffff160217905550808273ffffffffffffffffffffffffffffffffffffffff168473ffffffffffffffffffffffffffffffffffffffff167fddf252ad1be2c89b69c2b068fc378daa952ba7f163c4a11628f55a4df523b3ef60405160405180910390a4505050565b6117028282610cbd565b611791576117278173ffffffffffffffffffffffffffffffffffffffff166014611d66565b6117358360001c6020611d66565b604051602001611746929190612b85565b6040516020818303038152906040526040517f08c379a00000000000000000000000000000000000000000000000000000000081526004016117889190612c5c565b60405180910390fd5b5050565b61179f8282610cbd565b6118725760016006600084815260200190815260200160002060000160008373ffffffffffffffffffffffffffffffffffffffff1673ffffffffffffffffffffffffffffffffffffffff16815260200190815260200160002060006101000a81548160ff0219169083151502179055506118176112fd565b73ffffffffffffffffffffffffffffffffffffffff168173ffffffffffffffffffffffffffffffffffffffff16837f2f8788117e7eff1d82e926ec794901d17c78024a50270940304540a733656f0d60405160405180910390a45b5050565b6118808282610cbd565b156119545760006006600084815260200190815260200160002060000160008373ffffffffffffffffffffffffffffffffffffffff1673ffffffffffffffffffffffffffffffffffffffff16815260200190815260200160002060006101000a81548160ff0219169083151502179055506118f96112fd565b73ffffffffffffffffffffffffffffffffffffffff168173ffffffffffffffffffffffffffffffffffffffff16837ff6391f5c32d9c69d2a47ea670b442974b53935d1edc7fd64eb21e047a839171b60405160405180910390a45b5050565b600081600001549050919050565b611980828260405180602001604052806000815250611fa2565b5050565b6001816000016000828254019250508190555050565b60006119a582610b53565b90506119b381600084611d61565b6119be600083611305565b6001600360008373ffffffffffffffffffffffffffffffffffffffff1673ffffffffffffffffffffffffffffffffffffffff1681526020019081526020016000206000828254611a0e9190613053565b925050819055506002600083815260200190815260200160002060006101000a81549073ffffffffffffffffffffffffffffffffffffffff021916905581600073ffffffffffffffffffffffffffffffffffffffff168273ffffffffffffffffffffffffffffffffffffffff167fddf252ad1be2c89b69c2b068fc378daa952ba7f163c4a11628f55a4df523b3ef60405160405180910390a45050565b611ab684848461149c565b611ac284848484611ffd565b611b01576040517f08c379a0000000000000000000000000000000000000000000000000000000008152600401611af890612c9e565b60405180910390fd5b50505050565b606060405180602001604052806000815250905090565b60606000821415611b66576040518060400160405280600181526020017f30000000000000000000000000000000000000000000000000000000000000008152509050611c7a565b600082905060005b60008214611b98578080611b81906131d4565b915050600a82611b919190612fc8565b9150611b6e565b60008167ffffffffffffffff811115611bb457611bb361330a565b5b6040519080825280601f01601f191660200182016040528015611be65781602001600182028036833780820191505090505b5090505b60008514611c7357600182611bff9190613053565b9150600a85611c0e919061321d565b6030611c1a9190612f72565b60f81b818381518110611c3057611c2f6132db565b5b60200101907effffffffffffffffffffffffffffffffffffffffffffffffffffffffffffff1916908160001a905350600a85611c6c9190612fc8565b9450611bea565b8093505050505b919050565b60007f80ac58cd000000000000000000000000000000000000000000000000000000007bffffffffffffffffffffffffffffffffffffffffffffffffffffffff1916827bffffffffffffffffffffffffffffffffffffffffffffffffffffffff19161480611d4a57507f5b5e139f000000000000000000000000000000000000000000000000000000007bffffffffffffffffffffffffffffffffffffffffffffffffffffffff1916827bffffffffffffffffffffffffffffffffffffffffffffffffffffffff1916145b80611d5a5750611d5982612194565b5b9050919050565b505050565b606060006002836002611d799190612ff9565b611d839190612f72565b67ffffffffffffffff811115611d9c57611d9b61330a565b5b6040519080825280601f01601f191660200182016040528015611dce5781602001600182028036833780820191505090505b5090507f300000000000000000000000000000000000000000000000000000000000000081600081518110611e0657611e056132db565b5b60200101907effffffffffffffffffffffffffffffffffffffffffffffffffffffffffffff1916908160001a9053507f780000000000000000000000000000000000000000000000000000000000000081600181518110611e6a57611e696132db565b5b60200101907effffffffffffffffffffffffffffffffffffffffffffffffffffffffffffff1916908160001a90535060006001846002611eaa9190612ff9565b611eb49190612f72565b90505b6001811115611f54577f3031323334353637383961626364656600000000000000000000000000000000600f861660108110611ef657611ef56132db565b5b1a60f81b828281518110611f0d57611f0c6132db565b5b60200101907effffffffffffffffffffffffffffffffffffffffffffffffffffffffffffff1916908160001a905350600485901c945080611f4d90613147565b9050611eb7565b5060008414611f98576040517f08c379a0000000000000000000000000000000000000000000000000000000008152600401611f8f90612c7e565b60405180910390fd5b8091505092915050565b611fac83836121fe565b611fb96000848484611ffd565b611ff8576040517f08c379a0000000000000000000000000000000000000000000000000000000008152600401611fef90612c9e565b60405180910390fd5b505050565b600061201e8473ffffffffffffffffffffffffffffffffffffffff166123cc565b15612187578373ffffffffffffffffffffffffffffffffffffffff1663150b7a026120476112fd565b8786866040518563ffffffff1660e01b81526004016120699493929190612bda565b602060405180830381600087803b15801561208357600080fd5b505af19250505080156120b457506040513d601f19601f820116820180604052508101906120b1919061276c565b60015b612137573d80600081146120e4576040519150601f19603f3d011682016040523d82523d6000602084013e6120e9565b606091505b5060008151141561212f576040517f08c379a000000000000000000000000000000000000000000000000000000000815260040161212690612c9e565b60405180910390fd5b805181602001fd5b63150b7a0260e01b7bffffffffffffffffffffffffffffffffffffffffffffffffffffffff1916817bffffffffffffffffffffffffffffffffffffffffffffffffffffffff19161491505061218c565b600190505b949350505050565b60007f01ffc9a7000000000000000000000000000000000000000000000000000000007bffffffffffffffffffffffffffffffffffffffffffffffffffffffff1916827bffffffffffffffffffffffffffffffffffffffffffffffffffffffff1916149050919050565b600073ffffffffffffffffffffffffffffffffffffffff168273ffffffffffffffffffffffffffffffffffffffff16141561226e576040517f08c379a000000000000000000000000000000000000000000000000000000000815260040161226590612d9e565b60405180910390fd5b61227781611291565b156122b7576040517f08c379a00000000000000000000000000000000000000000000000000000000081526004016122ae90612cbe565b60405180910390fd5b6122c360008383611d61565b6001600360008473ffffffffffffffffffffffffffffffffffffffff1673ffffffffffffffffffffffffffffffffffffffff16815260200190815260200160002060008282546123139190612f72565b92505081905550816002600083815260200190815260200160002060006101000a81548173ffffffffffffffffffffffffffffffffffffffff021916908373ffffffffffffffffffffffffffffffffffffffff160217905550808273ffffffffffffffffffffffffffffffffffffffff16600073ffffffffffffffffffffffffffffffffffffffff167fddf252ad1be2c89b69c2b068fc378daa952ba7f163c4a11628f55a4df523b3ef60405160405180910390a45050565b600080823b905060008111915050919050565b60006123f26123ed84612efe565b612ed9565b90508281526020810184848401111561240e5761240d61333e565b5b612419848285613105565b509392505050565b600081359050612430816138a6565b92915050565b600081519050612445816138a6565b92915050565b60008135905061245a816138bd565b92915050565b60008135905061246f816138d4565b92915050565b600081359050612484816138eb565b92915050565b600081519050612499816138eb565b92915050565b600082601f8301126124b4576124b3613339565b5b81356124c48482602086016123df565b91505092915050565b6000813590506124dc81613902565b92915050565b6000602082840312156124f8576124f7613348565b5b600061250684828501612421565b91505092915050565b60006020828403121561252557612524613348565b5b600061253384828501612436565b91505092915050565b6000806040838503121561255357612552613348565b5b600061256185828601612421565b925050602061257285828601612421565b9150509250929050565b60008060006060848603121561259557612594613348565b5b60006125a386828701612421565b93505060206125b486828701612421565b92505060406125c5868287016124cd565b9150509250925092565b600080600080608085870312156125e9576125e8613348565b5b60006125f787828801612421565b945050602061260887828801612421565b9350506040612619878288016124cd565b925050606085013567ffffffffffffffff81111561263a57612639613343565b5b6126468782880161249f565b91505092959194509250565b6000806040838503121561266957612668613348565b5b600061267785828601612421565b92505060206126888582860161244b565b9150509250929050565b600080604083850312156126a9576126a8613348565b5b60006126b785828601612421565b92505060206126c8858286016124cd565b9150509250929050565b6000602082840312156126e8576126e7613348565b5b60006126f684828501612460565b91505092915050565b6000806040838503121561271657612715613348565b5b600061272485828601612460565b925050602061273585828601612421565b9150509250929050565b60006020828403121561275557612754613348565b5b600061276384828501612475565b91505092915050565b60006020828403121561278257612781613348565b5b60006127908482850161248a565b91505092915050565b6000602082840312156127af576127ae613348565b5b60006127bd848285016124cd565b91505092915050565b6127cf81613087565b82525050565b6127de81613099565b82525050565b6127ed816130a5565b82525050565b60006127fe82612f2f565b6128088185612f45565b9350612818818560208601613114565b6128218161334d565b840191505092915050565b600061283782612f3a565b6128418185612f56565b9350612851818560208601613114565b61285a8161334d565b840191505092915050565b600061287082612f3a565b61287a8185612f67565b935061288a818560208601613114565b80840191505092915050565b60006128a3602083612f56565b91506128ae8261335e565b602082019050919050565b60006128c6603283612f56565b91506128d182613387565b604082019050919050565b60006128e9601c83612f56565b91506128f4826133d6565b602082019050919050565b600061290c602483612f56565b9150612917826133ff565b604082019050919050565b600061292f601983612f56565b915061293a8261344e565b602082019050919050565b6000612952602c83612f56565b915061295d82613477565b604082019050919050565b6000612975603883612f56565b9150612980826134c6565b604082019050919050565b6000612998602a83612f56565b91506129a382613515565b604082019050919050565b60006129bb602983612f56565b91506129c682613564565b604082019050919050565b60006129de602083612f56565b91506129e9826135b3565b602082019050919050565b6000612a01602c83612f56565b9150612a0c826135dc565b604082019050919050565b6000612a24602983612f56565b9150612a2f8261362b565b604082019050919050565b6000612a47602f83612f56565b9150612a528261367a565b604082019050919050565b6000612a6a602183612f56565b9150612a75826136c9565b604082019050919050565b6000612a8d603183612f56565b9150612a9882613718565b604082019050919050565b6000612ab0602a83612f56565b9150612abb82613767565b604082019050919050565b6000612ad3601783612f67565b9150612ade826137b6565b601782019050919050565b6000612af6601183612f67565b9150612b01826137df565b601182019050919050565b6000612b19602f83612f56565b9150612b2482613808565b604082019050919050565b6000612b3c602b83612f56565b9150612b4782613857565b604082019050919050565b612b5b816130fb565b82525050565b6000612b6d8285612865565b9150612b798284612865565b91508190509392505050565b6000612b9082612ac6565b9150612b9c8285612865565b9150612ba782612ae9565b9150612bb38284612865565b91508190509392505050565b6000602082019050612bd460008301846127c6565b92915050565b6000608082019050612bef60008301876127c6565b612bfc60208301866127c6565b612c096040830185612b52565b8181036060830152612c1b81846127f3565b905095945050505050565b6000602082019050612c3b60008301846127d5565b92915050565b6000602082019050612c5660008301846127e4565b92915050565b60006020820190508181036000830152612c76818461282c565b905092915050565b60006020820190508181036000830152612c9781612896565b9050919050565b60006020820190508181036000830152612cb7816128b9565b9050919050565b60006020820190508181036000830152612cd7816128dc565b9050919050565b60006020820190508181036000830152612cf7816128ff565b9050919050565b60006020820190508181036000830152612d1781612922565b9050919050565b60006020820190508181036000830152612d3781612945565b9050919050565b60006020820190508181036000830152612d5781612968565b9050919050565b60006020820190508181036000830152612d778161298b565b9050919050565b60006020820190508181036000830152612d97816129ae565b9050919050565b60006020820190508181036000830152612db7816129d1565b9050919050565b60006020820190508181036000830152612dd7816129f4565b9050919050565b60006020820190508181036000830152612df781612a17565b9050919050565b60006020820190508181036000830152612e1781612a3a565b9050919050565b60006020820190508181036000830152612e3781612a5d565b9050919050565b60006020820190508181036000830152612e5781612a80565b9050919050565b60006020820190508181036000830152612e7781612aa3565b9050919050565b60006020820190508181036000830152612e9781612b0c565b9050919050565b60006020820190508181036000830152612eb781612b2f565b9050919050565b6000602082019050612ed36000830184612b52565b92915050565b6000612ee3612ef4565b9050612eef82826131a3565b919050565b6000604051905090565b600067ffffffffffffffff821115612f1957612f1861330a565b5b612f228261334d565b9050602081019050919050565b600081519050919050565b600081519050919050565b600082825260208201905092915050565b600082825260208201905092915050565b600081905092915050565b6000612f7d826130fb565b9150612f88836130fb565b9250827fffffffffffffffffffffffffffffffffffffffffffffffffffffffffffffffff03821115612fbd57612fbc61324e565b5b828201905092915050565b6000612fd3826130fb565b9150612fde836130fb565b925082612fee57612fed61327d565b5b828204905092915050565b6000613004826130fb565b915061300f836130fb565b9250817fffffffffffffffffffffffffffffffffffffffffffffffffffffffffffffffff04831182151516156130485761304761324e565b5b828202905092915050565b600061305e826130fb565b9150613069836130fb565b92508282101561307c5761307b61324e565b5b828203905092915050565b6000613092826130db565b9050919050565b60008115159050919050565b6000819050919050565b60007fffffffff0000000000000000000000000000000000000000000000000000000082169050919050565b600073ffffffffffffffffffffffffffffffffffffffff82169050919050565b6000819050919050565b82818337600083830152505050565b60005b83811015613132578082015181840152602081019050613117565b83811115613141576000848401525b50505050565b6000613152826130fb565b915060008214156131665761316561324e565b5b600182039050919050565b6000600282049050600182168061318957607f821691505b6020821081141561319d5761319c6132ac565b5b50919050565b6131ac8261334d565b810181811067ffffffffffffffff821117156131cb576131ca61330a565b5b80604052505050565b60006131df826130fb565b91507fffffffffffffffffffffffffffffffffffffffffffffffffffffffffffffffff8214156132125761321161324e565b5b600182019050919050565b6000613228826130fb565b9150613233836130fb565b9250826132435761324261327d565b5b828206905092915050565b7f4e487b7100000000000000000000000000000000000000000000000000000000600052601160045260246000fd5b7f4e487b7100000000000000000000000000000000000000000000000000000000600052601260045260246000fd5b7f4e487b7100000000000000000000000000000000000000000000000000000000600052602260045260246000fd5b7f4e487b7100000000000000000000000000000000000000000000000000000000600052603260045260246000fd5b7f4e487b7100000000000000000000000000000000000000000000000000000000600052604160045260246000fd5b600080fd5b600080fd5b600080fd5b600080fd5b6000601f19601f8301169050919050565b7f537472696e67733a20686578206c656e67746820696e73756666696369656e74600082015250565b7f4552433732313a207472616e7366657220746f206e6f6e20455243373231526560008201527f63656976657220696d706c656d656e7465720000000000000000000000000000602082015250565b7f4552433732313a20746f6b656e20616c7265616479206d696e74656400000000600082015250565b7f4552433732313a207472616e7366657220746f20746865207a65726f2061646460008201527f7265737300000000000000000000000000000000000000000000000000000000602082015250565b7f4552433732313a20617070726f766520746f2063616c6c657200000000000000600082015250565b7f4552433732313a206f70657261746f7220717565727920666f72206e6f6e657860008201527f697374656e7420746f6b656e0000000000000000000000000000000000000000602082015250565b7f4552433732313a20617070726f76652063616c6c6572206973206e6f74206f7760008201527f6e6572206e6f7220617070726f76656420666f7220616c6c0000000000000000602082015250565b7f4552433732313a2062616c616e636520717565727920666f7220746865207a6560008201527f726f206164647265737300000000000000000000000000000000000000000000602082015250565b7f4552433732313a206f776e657220717565727920666f72206e6f6e657869737460008201527f656e7420746f6b656e0000000000000000000000000000000000000000000000602082015250565b7f4552433732313a206d696e7420746f20746865207a65726f2061646472657373600082015250565b7f4552433732313a20617070726f76656420717565727920666f72206e6f6e657860008201527f697374656e7420746f6b656e0000000000000000000000000000000000000000602082015250565b7f4552433732313a207472616e73666572206f6620746f6b656e2074686174206960008201527f73206e6f74206f776e0000000000000000000000000000000000000000000000602082015250565b7f4552433732314d657461646174613a2055524920717565727920666f72206e6f60008201527f6e6578697374656e7420746f6b656e0000000000000000000000000000000000602082015250565b7f4552433732313a20617070726f76616c20746f2063757272656e74206f776e6560008201527f7200000000000000000000000000000000000000000000000000000000000000602082015250565b7f4552433732313a207472616e736665722063616c6c6572206973206e6f74206f60008201527f776e6572206e6f7220617070726f766564000000000000000000000000000000602082015250565b7f43616e6e6f74206275726e20746f6b656e7320666f72207468697320746f6b6560008201527f6e2050726f766964657200000000000000000000000000000000000000000000602082015250565b7f416363657373436f6e74726f6c3a206163636f756e7420000000000000000000600082015250565b7f206973206d697373696e6720726f6c6520000000000000000000000000000000600082015250565b7f416363657373436f6e74726f6c3a2063616e206f6e6c792072656e6f756e636560008201527f20726f6c657320666f722073656c660000000000000000000000000000000000602082015250565b7f43616e6e6f7420697373756520746f6b656e7320666f72207468697320746f6b60008201527f656e2050726f7669646572000000000000000000000000000000000000000000602082015250565b6138af81613087565b81146138ba57600080fd5b50565b6138c681613099565b81146138d157600080fd5b50565b6138dd816130a5565b81146138e857600080fd5b50565b6138f4816130af565b81146138ff57600080fd5b50565b61390b816130fb565b811461391657600080fd5b5056fea2646970667358221220d831a671bbf237645dc8328b8de9cb252f2f47be8e5d81e1198364973f57664c64736f6c6343000807003360806040523480156200001157600080fd5b506040518060400160405280600b81526020017f4163636573734772616e740000000000000000000000000000000000000000008152506040518060400160405280600b81526020017f4163636573734772616e74000000000000000000000000000000000000000000815250816000908051906020019062000096929190620002ac565b508060019080519060200190620000af929190620002ac565b505050620000c76000801b336200013160201b60201c565b620000f97fedcc084d3dcd65a1f7f23c65c46722faca6953d28e43150a467cf43e5c309238336200013160201b60201c565b6200012b7f9f2df0fed2c77648de5860a4cc508cd0818c85b8b8a1ab4ceeef8d981c8956a6336200013160201b60201c565b620003c1565b6200014382826200014760201b60201c565b5050565b6200015982826200023960201b60201c565b620002355760016006600084815260200190815260200160002060000160008373ffffffffffffffffffffffffffffffffffffffff1673ffffffffffffffffffffffffffffffffffffffff16815260200190815260200160002060006101000a81548160ff021916908315150217905550620001da620002a460201b60201c565b73ffffffffffffffffffffffffffffffffffffffff168173ffffffffffffffffffffffffffffffffffffffff16837f2f8788117e7eff1d82e926ec794901d17c78024a50270940304540a733656f0d60405160405180910390a45b5050565b60006006600084815260200190815260200160002060000160008373ffffffffffffffffffffffffffffffffffffffff1673ffffffffffffffffffffffffffffffffffffffff16815260200190815260200160002060009054906101000a900460ff16905092915050565b600033905090565b828054620002ba906200035c565b90600052602060002090601f016020900481019282620002de57600085556200032a565b82601f10620002f957805160ff19168380011785556200032a565b828001600101855582156200032a579182015b82811115620003295782518255916020019190600101906200030c565b5b5090506200033991906200033d565b5090565b5b80821115620003585760008160009055506001016200033e565b5090565b600060028204905060018216806200037557607f821691505b602082108114156200038c576200038b62000392565b5b50919050565b7f4e487b7100000000000000000000000000000000000000000000000000000000600052602260045260246000fd5b613b3380620003d16000396000f3fe608060405234801561001057600080fd5b506004361061018e5760003560e01c80636352211e116100de578063a250f30c11610097578063d539139311610071578063d5391393146104a5578063d547741f146104c3578063e985e9c5146104df578063f68e95531461050f5761018e565b8063a250f30c1461043b578063b88d4fde14610459578063c87b56dd146104755761018e565b80636352211e1461035357806370a082311461038357806391d14854146103b357806395d89b41146103e3578063a217fddf14610401578063a22cb4651461041f5761018e565b8063248a9ca31161014b57806336568abe1161012557806336568abe146102cf57806342842e0e146102eb57806342966c68146103075780635bd19a73146103235761018e565b8063248a9ca31461026557806324c20a34146102955780632f2ff15d146102b35761018e565b806301ffc9a71461019357806306fdde03146101c3578063081812fc146101e1578063095ea7b3146102115780630e2600161461022d57806323b872dd14610249575b600080fd5b6101ad60048036038101906101a891906127ed565b61052d565b6040516101ba9190612d4f565b60405180910390f35b6101cb61053f565b6040516101d89190612da0565b60405180910390f35b6101fb60048036038101906101f69190612890565b6105d1565b6040516102089190612ce8565b60405180910390f35b61022b60048036038101906102269190612713565b610656565b005b61024760048036038101906102429190612590565b61076e565b005b610263600480360381019061025e91906125fd565b6108e4565b005b61027f600480360381019061027a9190612780565b610944565b60405161028c9190612d6a565b60405180910390f35b61029d610964565b6040516102aa9190612d6a565b60405180910390f35b6102cd60048036038101906102c891906127ad565b610988565b005b6102e960048036038101906102e491906127ad565b6109b1565b005b610305600480360381019061030091906125fd565b610a34565b005b610321600480360381019061031c9190612890565b610a54565b005b61033d60048036038101906103389190612847565b610ab0565b60405161034a9190613022565b60405180910390f35b61036d60048036038101906103689190612890565b610b91565b60405161037a9190612ce8565b60405180910390f35b61039d60048036038101906103989190612590565b610c43565b6040516103aa9190613022565b60405180910390f35b6103cd60048036038101906103c891906127ad565b610cfb565b6040516103da9190612d4f565b60405180910390f35b6103eb610d66565b6040516103f89190612da0565b60405180910390f35b610409610df8565b6040516104169190612d6a565b60405180910390f35b610439600480360381019061043491906126d3565b610dff565b005b610443610f80565b6040516104509190612d85565b60405180910390f35b610473600480360381019061046e9190612650565b610fa4565b005b61048f600480360381019061048a9190612890565b611006565b60405161049c9190612da0565b60405180910390f35b6104ad6110ad565b6040516104ba9190612d6a565b60405180910390f35b6104dd60048036038101906104d891906127ad565b6110d1565b005b6104f960048036038101906104f491906125bd565b6110fa565b6040516105069190612d4f565b60405180910390f35b61051761118e565b6040516105249190612d6a565b60405180910390f35b6000610538826111b2565b9050919050565b60606000805461054e90613306565b80601f016020809104026020016040519081016040528092919081815260200182805461057a90613306565b80156105c75780601f1061059c576101008083540402835291602001916105c7565b820191906000526020600020905b8154815290600101906020018083116105aa57829003601f168201915b5050505050905090565b60006105dc8261122c565b61061b576040517f08c379a000000000000000000000000000000000000000000000000000000000815260040161061290612f22565b60405180910390fd5b6004600083815260200190815260200160002060009054906101000a900473ffffffffffffffffffffffffffffffffffffffff169050919050565b600061066182610b91565b90508073ffffffffffffffffffffffffffffffffffffffff168373ffffffffffffffffffffffffffffffffffffffff1614156106d2576040517f08c379a00000000000000000000000000000000000000000000000000000000081526004016106c990612f82565b60405180910390fd5b8073ffffffffffffffffffffffffffffffffffffffff166106f1611298565b73ffffffffffffffffffffffffffffffffffffffff161480610720575061071f8161071a611298565b6110fa565b5b61075f576040517f08c379a000000000000000000000000000000000000000000000000000000000815260040161075690612ea2565b60405180910390fd5b61076983836112a0565b505050565b7fedcc084d3dcd65a1f7f23c65c46722faca6953d28e43150a467cf43e5c3092386107a08161079b611298565b611359565b8173ffffffffffffffffffffffffffffffffffffffff166301ffc9a77fc7559631000000000000000000000000000000000000000000000000000000006040518263ffffffff1660e01b81526004016107f99190612d85565b60206040518083038186803b15801561081157600080fd5b505afa158015610825573d6000803e3d6000fd5b505050506040513d601f19601f820116820180604052508101906108499190612753565b610888576040517f08c379a000000000000000000000000000000000000000000000000000000000815260040161087f90612e62565b60405180910390fd5b6001600960008473ffffffffffffffffffffffffffffffffffffffff1673ffffffffffffffffffffffffffffffffffffffff16815260200190815260200160002060006101000a81548160ff0219169083151502179055505050565b6108f56108ef611298565b826113f6565b610934576040517f08c379a000000000000000000000000000000000000000000000000000000000815260040161092b90612fa2565b60405180910390fd5b61093f8383836114d4565b505050565b600060066000838152602001908152602001600020600101549050919050565b7f18d9ff454de989bd126b06bd404b47ede75f9e65543e94e8d212f89d7dcbb87c81565b61099182610944565b6109a28161099d611298565b611359565b6109ac8383611730565b505050565b6109b9611298565b73ffffffffffffffffffffffffffffffffffffffff168173ffffffffffffffffffffffffffffffffffffffff1614610a26576040517f08c379a0000000000000000000000000000000000000000000000000000000008152600401610a1d90613002565b60405180910390fd5b610a308282611811565b5050565b610a4f83838360405180602001604052806000815250610fa4565b505050565b610a65610a5f611298565b826113f6565b610aa4576040517f08c379a0000000000000000000000000000000000000000000000000000000008152600401610a9b90612fe2565b60405180910390fd5b610aad816118f3565b50565b6000600960003373ffffffffffffffffffffffffffffffffffffffff1673ffffffffffffffffffffffffffffffffffffffff16815260200190815260200160002060009054906101000a900460ff16610b3e576040517f08c379a0000000000000000000000000000000000000000000000000000000008152600401610b3590612fc2565b60405180910390fd5b6000610b4a6007611a04565b905082600860008381526020019081526020016000209080519060200190610b7392919061237a565b50610b7e3382611a12565b610b886007611a30565b80915050919050565b6000806002600084815260200190815260200160002060009054906101000a900473ffffffffffffffffffffffffffffffffffffffff169050600073ffffffffffffffffffffffffffffffffffffffff168173ffffffffffffffffffffffffffffffffffffffff161415610c3a576040517f08c379a0000000000000000000000000000000000000000000000000000000008152600401610c3190612ee2565b60405180910390fd5b80915050919050565b60008073ffffffffffffffffffffffffffffffffffffffff168273ffffffffffffffffffffffffffffffffffffffff161415610cb4576040517f08c379a0000000000000000000000000000000000000000000000000000000008152600401610cab90612ec2565b60405180910390fd5b600360008373ffffffffffffffffffffffffffffffffffffffff1673ffffffffffffffffffffffffffffffffffffffff168152602001908152602001600020549050919050565b60006006600084815260200190815260200160002060000160008373ffffffffffffffffffffffffffffffffffffffff1673ffffffffffffffffffffffffffffffffffffffff16815260200190815260200160002060009054906101000a900460ff16905092915050565b606060018054610d7590613306565b80601f0160208091040260200160405190810160405280929190818152602001828054610da190613306565b8015610dee5780601f10610dc357610100808354040283529160200191610dee565b820191906000526020600020905b815481529060010190602001808311610dd157829003601f168201915b5050505050905090565b6000801b81565b610e07611298565b73ffffffffffffffffffffffffffffffffffffffff168273ffffffffffffffffffffffffffffffffffffffff161415610e75576040517f08c379a0000000000000000000000000000000000000000000000000000000008152600401610e6c90612e42565b60405180910390fd5b8060056000610e82611298565b73ffffffffffffffffffffffffffffffffffffffff1673ffffffffffffffffffffffffffffffffffffffff16815260200190815260200160002060008473ffffffffffffffffffffffffffffffffffffffff1673ffffffffffffffffffffffffffffffffffffffff16815260200190815260200160002060006101000a81548160ff0219169083151502179055508173ffffffffffffffffffffffffffffffffffffffff16610f2f611298565b73ffffffffffffffffffffffffffffffffffffffff167f17307eab39ab6107e8899845ad3d59bd9653f200f220920489ca2b5937696c3183604051610f749190612d4f565b60405180910390a35050565b7fc75596310000000000000000000000000000000000000000000000000000000081565b610fb5610faf611298565b836113f6565b610ff4576040517f08c379a0000000000000000000000000000000000000000000000000000000008152600401610feb90612fa2565b60405180910390fd5b61100084848484611a46565b50505050565b60606110118261122c565b611050576040517f08c379a000000000000000000000000000000000000000000000000000000000815260040161104790612f62565b60405180910390fd5b600061105a611aa2565b9050600081511161107a57604051806020016040528060008152506110a5565b8061108484611ab9565b604051602001611095929190612c8a565b6040516020818303038152906040525b915050919050565b7f9f2df0fed2c77648de5860a4cc508cd0818c85b8b8a1ab4ceeef8d981c8956a681565b6110da82610944565b6110eb816110e6611298565b611359565b6110f58383611811565b505050565b6000600560008473ffffffffffffffffffffffffffffffffffffffff1673ffffffffffffffffffffffffffffffffffffffff16815260200190815260200160002060008373ffffffffffffffffffffffffffffffffffffffff1673ffffffffffffffffffffffffffffffffffffffff16815260200190815260200160002060009054906101000a900460ff16905092915050565b7fedcc084d3dcd65a1f7f23c65c46722faca6953d28e43150a467cf43e5c30923881565b60007f7965db0b000000000000000000000000000000000000000000000000000000007bffffffffffffffffffffffffffffffffffffffffffffffffffffffff1916827bffffffffffffffffffffffffffffffffffffffffffffffffffffffff19161480611225575061122482611c1a565b5b9050919050565b60008073ffffffffffffffffffffffffffffffffffffffff166002600084815260200190815260200160002060009054906101000a900473ffffffffffffffffffffffffffffffffffffffff1673ffffffffffffffffffffffffffffffffffffffff1614159050919050565b600033905090565b816004600083815260200190815260200160002060006101000a81548173ffffffffffffffffffffffffffffffffffffffff021916908373ffffffffffffffffffffffffffffffffffffffff160217905550808273ffffffffffffffffffffffffffffffffffffffff1661131383610b91565b73ffffffffffffffffffffffffffffffffffffffff167f8c5be1e5ebec7d5bd14f71427d1e84f3dd0314c0f7b2291e5b200ac8c7c3b92560405160405180910390a45050565b6113638282610cfb565b6113f2576113888173ffffffffffffffffffffffffffffffffffffffff166014611cfc565b6113968360001c6020611cfc565b6040516020016113a7929190612cae565b6040516020818303038152906040526040517f08c379a00000000000000000000000000000000000000000000000000000000081526004016113e99190612da0565b60405180910390fd5b5050565b60006114018261122c565b611440576040517f08c379a000000000000000000000000000000000000000000000000000000000815260040161143790612e82565b60405180910390fd5b600061144b83610b91565b90508073ffffffffffffffffffffffffffffffffffffffff168473ffffffffffffffffffffffffffffffffffffffff1614806114ba57508373ffffffffffffffffffffffffffffffffffffffff166114a2846105d1565b73ffffffffffffffffffffffffffffffffffffffff16145b806114cb57506114ca81856110fa565b5b91505092915050565b8273ffffffffffffffffffffffffffffffffffffffff166114f482610b91565b73ffffffffffffffffffffffffffffffffffffffff161461154a576040517f08c379a000000000000000000000000000000000000000000000000000000000815260040161154190612f42565b60405180910390fd5b600073ffffffffffffffffffffffffffffffffffffffff168273ffffffffffffffffffffffffffffffffffffffff1614156115ba576040517f08c379a00000000000000000000000000000000000000000000000000000000081526004016115b190612e22565b60405180910390fd5b6115c5838383611f38565b6115d06000826112a0565b6001600360008573ffffffffffffffffffffffffffffffffffffffff1673ffffffffffffffffffffffffffffffffffffffff168152602001908152602001600020600082825461162091906131e8565b925050819055506001600360008473ffffffffffffffffffffffffffffffffffffffff1673ffffffffffffffffffffffffffffffffffffffff16815260200190815260200160002060008282546116779190613107565b92505081905550816002600083815260200190815260200160002060006101000a81548173ffffffffffffffffffffffffffffffffffffffff021916908373ffffffffffffffffffffffffffffffffffffffff160217905550808273ffffffffffffffffffffffffffffffffffffffff168473ffffffffffffffffffffffffffffffffffffffff167fddf252ad1be2c89b69c2b068fc378daa952ba7f163c4a11628f55a4df523b3ef60405160405180910390a4505050565b61173a8282610cfb565b61180d5760016006600084815260200190815260200160002060000160008373ffffffffffffffffffffffffffffffffffffffff1673ffffffffffffffffffffffffffffffffffffffff16815260200190815260200160002060006101000a81548160ff0219169083151502179055506117b2611298565b73ffffffffffffffffffffffffffffffffffffffff168173ffffffffffffffffffffffffffffffffffffffff16837f2f8788117e7eff1d82e926ec794901d17c78024a50270940304540a733656f0d60405160405180910390a45b5050565b61181b8282610cfb565b156118ef5760006006600084815260200190815260200160002060000160008373ffffffffffffffffffffffffffffffffffffffff1673ffffffffffffffffffffffffffffffffffffffff16815260200190815260200160002060006101000a81548160ff021916908315150217905550611894611298565b73ffffffffffffffffffffffffffffffffffffffff168173ffffffffffffffffffffffffffffffffffffffff16837ff6391f5c32d9c69d2a47ea670b442974b53935d1edc7fd64eb21e047a839171b60405160405180910390a45b5050565b60006118fe82610b91565b905061190c81600084611f38565b6119176000836112a0565b6001600360008373ffffffffffffffffffffffffffffffffffffffff1673ffffffffffffffffffffffffffffffffffffffff168152602001908152602001600020600082825461196791906131e8565b925050819055506002600083815260200190815260200160002060006101000a81549073ffffffffffffffffffffffffffffffffffffffff021916905581600073ffffffffffffffffffffffffffffffffffffffff168273ffffffffffffffffffffffffffffffffffffffff167fddf252ad1be2c89b69c2b068fc378daa952ba7f163c4a11628f55a4df523b3ef60405160405180910390a45050565b600081600001549050919050565b611a2c828260405180602001604052806000815250611f3d565b5050565b6001816000016000828254019250508190555050565b611a518484846114d4565b611a5d84848484611f98565b611a9c576040517f08c379a0000000000000000000000000000000000000000000000000000000008152600401611a9390612de2565b60405180910390fd5b50505050565b606060405180602001604052806000815250905090565b60606000821415611b01576040518060400160405280600181526020017f30000000000000000000000000000000000000000000000000000000000000008152509050611c15565b600082905060005b60008214611b33578080611b1c90613369565b915050600a82611b2c919061315d565b9150611b09565b60008167ffffffffffffffff811115611b4f57611b4e61349f565b5b6040519080825280601f01601f191660200182016040528015611b815781602001600182028036833780820191505090505b5090505b60008514611c0e57600182611b9a91906131e8565b9150600a85611ba991906133b2565b6030611bb59190613107565b60f81b818381518110611bcb57611bca613470565b5b60200101907effffffffffffffffffffffffffffffffffffffffffffffffffffffffffffff1916908160001a905350600a85611c07919061315d565b9450611b85565b8093505050505b919050565b60007f80ac58cd000000000000000000000000000000000000000000000000000000007bffffffffffffffffffffffffffffffffffffffffffffffffffffffff1916827bffffffffffffffffffffffffffffffffffffffffffffffffffffffff19161480611ce557507f5b5e139f000000000000000000000000000000000000000000000000000000007bffffffffffffffffffffffffffffffffffffffffffffffffffffffff1916827bffffffffffffffffffffffffffffffffffffffffffffffffffffffff1916145b80611cf55750611cf48261212f565b5b9050919050565b606060006002836002611d0f919061318e565b611d199190613107565b67ffffffffffffffff811115611d3257611d3161349f565b5b6040519080825280601f01601f191660200182016040528015611d645781602001600182028036833780820191505090505b5090507f300000000000000000000000000000000000000000000000000000000000000081600081518110611d9c57611d9b613470565b5b60200101907effffffffffffffffffffffffffffffffffffffffffffffffffffffffffffff1916908160001a9053507f780000000000000000000000000000000000000000000000000000000000000081600181518110611e0057611dff613470565b5b60200101907effffffffffffffffffffffffffffffffffffffffffffffffffffffffffffff1916908160001a90535060006001846002611e40919061318e565b611e4a9190613107565b90505b6001811115611eea577f3031323334353637383961626364656600000000000000000000000000000000600f861660108110611e8c57611e8b613470565b5b1a60f81b828281518110611ea357611ea2613470565b5b60200101907effffffffffffffffffffffffffffffffffffffffffffffffffffffffffffff1916908160001a905350600485901c945080611ee3906132dc565b9050611e4d565b5060008414611f2e576040517f08c379a0000000000000000000000000000000000000000000000000000000008152600401611f2590612dc2565b60405180910390fd5b8091505092915050565b505050565b611f478383612199565b611f546000848484611f98565b611f93576040517f08c379a0000000000000000000000000000000000000000000000000000000008152600401611f8a90612de2565b60405180910390fd5b505050565b6000611fb98473ffffffffffffffffffffffffffffffffffffffff16612367565b15612122578373ffffffffffffffffffffffffffffffffffffffff1663150b7a02611fe2611298565b8786866040518563ffffffff1660e01b81526004016120049493929190612d03565b602060405180830381600087803b15801561201e57600080fd5b505af192505050801561204f57506040513d601f19601f8201168201806040525081019061204c919061281a565b60015b6120d2573d806000811461207f576040519150601f19603f3d011682016040523d82523d6000602084013e612084565b606091505b506000815114156120ca576040517f08c379a00000000000000000000000000000000000000000000000000000000081526004016120c190612de2565b60405180910390fd5b805181602001fd5b63150b7a0260e01b7bffffffffffffffffffffffffffffffffffffffffffffffffffffffff1916817bffffffffffffffffffffffffffffffffffffffffffffffffffffffff191614915050612127565b600190505b949350505050565b60007f01ffc9a7000000000000000000000000000000000000000000000000000000007bffffffffffffffffffffffffffffffffffffffffffffffffffffffff1916827bffffffffffffffffffffffffffffffffffffffffffffffffffffffff1916149050919050565b600073ffffffffffffffffffffffffffffffffffffffff168273ffffffffffffffffffffffffffffffffffffffff161415612209576040517f08c379a000000000000000000000000000000000000000000000000000000000815260040161220090612f02565b60405180910390fd5b6122128161122c565b15612252576040517f08c379a000000000000000000000000000000000000000000000000000000000815260040161224990612e02565b60405180910390fd5b61225e60008383611f38565b6001600360008473ffffffffffffffffffffffffffffffffffffffff1673ffffffffffffffffffffffffffffffffffffffff16815260200190815260200160002060008282546122ae9190613107565b92505081905550816002600083815260200190815260200160002060006101000a81548173ffffffffffffffffffffffffffffffffffffffff021916908373ffffffffffffffffffffffffffffffffffffffff160217905550808273ffffffffffffffffffffffffffffffffffffffff16600073ffffffffffffffffffffffffffffffffffffffff167fddf252ad1be2c89b69c2b068fc378daa952ba7f163c4a11628f55a4df523b3ef60405160405180910390a45050565b600080823b905060008111915050919050565b82805461238690613306565b90600052602060002090601f0160209004810192826123a857600085556123ef565b82601f106123c157805160ff19168380011785556123ef565b828001600101855582156123ef579182015b828111156123ee5782518255916020019190600101906123d3565b5b5090506123fc9190612400565b5090565b5b80821115612419576000816000905550600101612401565b5090565b600061243061242b84613062565b61303d565b90508281526020810184848401111561244c5761244b6134d3565b5b61245784828561329a565b509392505050565b600061247261246d84613093565b61303d565b90508281526020810184848401111561248e5761248d6134d3565b5b61249984828561329a565b509392505050565b6000813590506124b081613a8a565b92915050565b6000813590506124c581613aa1565b92915050565b6000815190506124da81613aa1565b92915050565b6000813590506124ef81613ab8565b92915050565b60008135905061250481613acf565b92915050565b60008151905061251981613acf565b92915050565b600082601f830112612534576125336134ce565b5b813561254484826020860161241d565b91505092915050565b600082601f830112612562576125616134ce565b5b813561257284826020860161245f565b91505092915050565b60008135905061258a81613ae6565b92915050565b6000602082840312156125a6576125a56134dd565b5b60006125b4848285016124a1565b91505092915050565b600080604083850312156125d4576125d36134dd565b5b60006125e2858286016124a1565b92505060206125f3858286016124a1565b9150509250929050565b600080600060608486031215612616576126156134dd565b5b6000612624868287016124a1565b9350506020612635868287016124a1565b92505060406126468682870161257b565b9150509250925092565b6000806000806080858703121561266a576126696134dd565b5b6000612678878288016124a1565b9450506020612689878288016124a1565b935050604061269a8782880161257b565b925050606085013567ffffffffffffffff8111156126bb576126ba6134d8565b5b6126c78782880161251f565b91505092959194509250565b600080604083850312156126ea576126e96134dd565b5b60006126f8858286016124a1565b9250506020612709858286016124b6565b9150509250929050565b6000806040838503121561272a576127296134dd565b5b6000612738858286016124a1565b92505060206127498582860161257b565b9150509250929050565b600060208284031215612769576127686134dd565b5b6000612777848285016124cb565b91505092915050565b600060208284031215612796576127956134dd565b5b60006127a4848285016124e0565b91505092915050565b600080604083850312156127c4576127c36134dd565b5b60006127d2858286016124e0565b92505060206127e3858286016124a1565b9150509250929050565b600060208284031215612803576128026134dd565b5b6000612811848285016124f5565b91505092915050565b6000602082840312156128305761282f6134dd565b5b600061283e8482850161250a565b91505092915050565b60006020828403121561285d5761285c6134dd565b5b600082013567ffffffffffffffff81111561287b5761287a6134d8565b5b6128878482850161254d565b91505092915050565b6000602082840312156128a6576128a56134dd565b5b60006128b48482850161257b565b91505092915050565b6128c68161321c565b82525050565b6128d58161322e565b82525050565b6128e48161323a565b82525050565b6128f381613244565b82525050565b6000612904826130c4565b61290e81856130da565b935061291e8185602086016132a9565b612927816134e2565b840191505092915050565b600061293d826130cf565b61294781856130eb565b93506129578185602086016132a9565b612960816134e2565b840191505092915050565b6000612976826130cf565b61298081856130fc565b93506129908185602086016132a9565b80840191505092915050565b60006129a96020836130eb565b91506129b4826134f3565b602082019050919050565b60006129cc6032836130eb565b91506129d78261351c565b604082019050919050565b60006129ef601c836130eb565b91506129fa8261356b565b602082019050919050565b6000612a126024836130eb565b9150612a1d82613594565b604082019050919050565b6000612a356019836130eb565b9150612a40826135e3565b602082019050919050565b6000612a586024836130eb565b9150612a638261360c565b604082019050919050565b6000612a7b602c836130eb565b9150612a868261365b565b604082019050919050565b6000612a9e6038836130eb565b9150612aa9826136aa565b604082019050919050565b6000612ac1602a836130eb565b9150612acc826136f9565b604082019050919050565b6000612ae46029836130eb565b9150612aef82613748565b604082019050919050565b6000612b076020836130eb565b9150612b1282613797565b602082019050919050565b6000612b2a602c836130eb565b9150612b35826137c0565b604082019050919050565b6000612b4d6029836130eb565b9150612b588261380f565b604082019050919050565b6000612b70602f836130eb565b9150612b7b8261385e565b604082019050919050565b6000612b936021836130eb565b9150612b9e826138ad565b604082019050919050565b6000612bb66031836130eb565b9150612bc1826138fc565b604082019050919050565b6000612bd9602d836130eb565b9150612be48261394b565b604082019050919050565b6000612bfc6017836130fc565b9150612c078261399a565b601782019050919050565b6000612c1f6030836130eb565b9150612c2a826139c3565b604082019050919050565b6000612c426011836130fc565b9150612c4d82613a12565b601182019050919050565b6000612c65602f836130eb565b9150612c7082613a3b565b604082019050919050565b612c8481613290565b82525050565b6000612c96828561296b565b9150612ca2828461296b565b91508190509392505050565b6000612cb982612bef565b9150612cc5828561296b565b9150612cd082612c35565b9150612cdc828461296b565b91508190509392505050565b6000602082019050612cfd60008301846128bd565b92915050565b6000608082019050612d1860008301876128bd565b612d2560208301866128bd565b612d326040830185612c7b565b8181036060830152612d4481846128f9565b905095945050505050565b6000602082019050612d6460008301846128cc565b92915050565b6000602082019050612d7f60008301846128db565b92915050565b6000602082019050612d9a60008301846128ea565b92915050565b60006020820190508181036000830152612dba8184612932565b905092915050565b60006020820190508181036000830152612ddb8161299c565b9050919050565b60006020820190508181036000830152612dfb816129bf565b9050919050565b60006020820190508181036000830152612e1b816129e2565b9050919050565b60006020820190508181036000830152612e3b81612a05565b9050919050565b60006020820190508181036000830152612e5b81612a28565b9050919050565b60006020820190508181036000830152612e7b81612a4b565b9050919050565b60006020820190508181036000830152612e9b81612a6e565b9050919050565b60006020820190508181036000830152612ebb81612a91565b9050919050565b60006020820190508181036000830152612edb81612ab4565b9050919050565b60006020820190508181036000830152612efb81612ad7565b9050919050565b60006020820190508181036000830152612f1b81612afa565b9050919050565b60006020820190508181036000830152612f3b81612b1d565b9050919050565b60006020820190508181036000830152612f5b81612b40565b9050919050565b60006020820190508181036000830152612f7b81612b63565b9050919050565b60006020820190508181036000830152612f9b81612b86565b9050919050565b60006020820190508181036000830152612fbb81612ba9565b9050919050565b60006020820190508181036000830152612fdb81612bcc565b9050919050565b60006020820190508181036000830152612ffb81612c12565b9050919050565b6000602082019050818103600083015261301b81612c58565b9050919050565b60006020820190506130376000830184612c7b565b92915050565b6000613047613058565b90506130538282613338565b919050565b6000604051905090565b600067ffffffffffffffff82111561307d5761307c61349f565b5b613086826134e2565b9050602081019050919050565b600067ffffffffffffffff8211156130ae576130ad61349f565b5b6130b7826134e2565b9050602081019050919050565b600081519050919050565b600081519050919050565b600082825260208201905092915050565b600082825260208201905092915050565b600081905092915050565b600061311282613290565b915061311d83613290565b9250827fffffffffffffffffffffffffffffffffffffffffffffffffffffffffffffffff03821115613152576131516133e3565b5b828201905092915050565b600061316882613290565b915061317383613290565b92508261318357613182613412565b5b828204905092915050565b600061319982613290565b91506131a483613290565b9250817fffffffffffffffffffffffffffffffffffffffffffffffffffffffffffffffff04831182151516156131dd576131dc6133e3565b5b828202905092915050565b60006131f382613290565b91506131fe83613290565b925082821015613211576132106133e3565b5b828203905092915050565b600061322782613270565b9050919050565b60008115159050919050565b6000819050919050565b60007fffffffff0000000000000000000000000000000000000000000000000000000082169050919050565b600073ffffffffffffffffffffffffffffffffffffffff82169050919050565b6000819050919050565b82818337600083830152505050565b60005b838110156132c75780820151818401526020810190506132ac565b838111156132d6576000848401525b50505050565b60006132e782613290565b915060008214156132fb576132fa6133e3565b5b600182039050919050565b6000600282049050600182168061331e57607f821691505b6020821081141561333257613331613441565b5b50919050565b613341826134e2565b810181811067ffffffffffffffff821117156133605761335f61349f565b5b80604052505050565b600061337482613290565b91507fffffffffffffffffffffffffffffffffffffffffffffffffffffffffffffffff8214156133a7576133a66133e3565b5b600182019050919050565b60006133bd82613290565b91506133c883613290565b9250826133d8576133d7613412565b5b828206905092915050565b7f4e487b7100000000000000000000000000000000000000000000000000000000600052601160045260246000fd5b7f4e487b7100000000000000000000000000000000000000000000000000000000600052601260045260246000fd5b7f4e487b7100000000000000000000000000000000000000000000000000000000600052602260045260246000fd5b7f4e487b7100000000000000000000000000000000000000000000000000000000600052603260045260246000fd5b7f4e487b7100000000000000000000000000000000000000000000000000000000600052604160045260246000fd5b600080fd5b600080fd5b600080fd5b600080fd5b6000601f19601f8301169050919050565b7f537472696e67733a20686578206c656e67746820696e73756666696369656e74600082015250565b7f4552433732313a207472616e7366657220746f206e6f6e20455243373231526560008201527f63656976657220696d706c656d656e7465720000000000000000000000000000602082015250565b7f4552433732313a20746f6b656e20616c7265616479206d696e74656400000000600082015250565b7f4552433732313a207472616e7366657220746f20746865207a65726f2061646460008201527f7265737300000000000000000000000000000000000000000000000000000000602082015250565b7f4552433732313a20617070726f766520746f2063616c6c657200000000000000600082015250565b7f4164647265737320646f6573206e6f7420696d706c656d656e74204950726f7660008201527f6964657200000000000000000000000000000000000000000000000000000000602082015250565b7f4552433732313a206f70657261746f7220717565727920666f72206e6f6e657860008201527f697374656e7420746f6b656e0000000000000000000000000000000000000000602082015250565b7f4552433732313a20617070726f76652063616c6c6572206973206e6f74206f7760008201527f6e6572206e6f7220617070726f76656420666f7220616c6c0000000000000000602082015250565b7f4552433732313a2062616c616e636520717565727920666f7220746865207a6560008201527f726f206164647265737300000000000000000000000000000000000000000000602082015250565b7f4552433732313a206f776e657220717565727920666f72206e6f6e657869737460008201527f656e7420746f6b656e0000000000000000000000000000000000000000000000602082015250565b7f4552433732313a206d696e7420746f20746865207a65726f2061646472657373600082015250565b7f4552433732313a20617070726f76656420717565727920666f72206e6f6e657860008201527f697374656e7420746f6b656e0000000000000000000000000000000000000000602082015250565b7f4552433732313a207472616e73666572206f6620746f6b656e2074686174206960008201527f73206e6f74206f776e0000000000000000000000000000000000000000000000602082015250565b7f4552433732314d657461646174613a2055524920717565727920666f72206e6f60008201527f6e6578697374656e7420746f6b656e0000000000000000000000000000000000602082015250565b7f4552433732313a20617070726f76616c20746f2063757272656e74206f776e6560008201527f7200000000000000000000000000000000000000000000000000000000000000602082015250565b7f4552433732313a207472616e736665722063616c6c6572206973206e6f74206f60008201527f776e6572206e6f7220617070726f766564000000000000000000000000000000602082015250565b7f43616c6c696e6720436f6e7472616374206973206e6f7420612072656769737460008201527f657265642070726f766964657200000000000000000000000000000000000000602082015250565b7f416363657373436f6e74726f6c3a206163636f756e7420000000000000000000600082015250565b7f4552433732314275726e61626c653a2063616c6c6572206973206e6f74206f7760008201527f6e6572206e6f7220617070726f76656400000000000000000000000000000000602082015250565b7f206973206d697373696e6720726f6c6520000000000000000000000000000000600082015250565b7f416363657373436f6e74726f6c3a2063616e206f6e6c792072656e6f756e636560008201527f20726f6c657320666f722073656c660000000000000000000000000000000000602082015250565b613a938161321c565b8114613a9e57600080fd5b50565b613aaa8161322e565b8114613ab557600080fd5b50565b613ac18161323a565b8114613acc57600080fd5b50565b613ad881613244565b8114613ae357600080fd5b50565b613aef81613290565b8114613afa57600080fd5b5056fea26469706673582212207caf291cdb48c2cf542abfc4945aeda293da99f7eb40da9acc94e752462af0dd64736f6c63430008070033",
  "immutableReferences": {},
  "source": "// SPDX-License-Identifier: MIT\npragma solidity ^0.8.2;\n\nimport \"@openzeppelin/contracts/token/ERC721/ERC721.sol\";\nimport \"@openzeppelin/contracts/token/ERC721/extensions/ERC721Burnable.sol\";\nimport \"@openzeppelin/contracts/access/AccessControl.sol\";\nimport \"@openzeppelin/contracts/utils/Counters.sol\";\nimport \"./AccessGrant.sol\";\n\ncontract AccessToken is ERC721, ERC721Burnable, AccessControl {\n    using Counters for Counters.Counter;\n\n    bytes32 public constant MINTER_ROLE = keccak256(\"MINTER_ROLE\");\n    bytes32 public constant REGISTRAR_ROLE = keccak256(\"REGISTRAR_ROLE\");\n\n    Counters.Counter private _tokenIdCounter;\n\n    mapping (uint => uint) _tokenAccessGrants;\n\n    AccessGrant private _accessGrant;\n    function accessGrant() external view returns(address){\n        return address(_accessGrant);\n    }\n\n    constructor() ERC721(\"AccessToken\", \"ACCESSTOKEN\") {\n        _accessGrant = new AccessGrant();\n        _setupRole(DEFAULT_ADMIN_ROLE, msg.sender);\n        _setupRole(MINTER_ROLE, msg.sender);\n    }\n\n    function mint(address to, uint accessGrantId) public {\n        require(msg.sender == _accessGrant.ownerOf(accessGrantId), \"Cannot issue tokens for this token Provider\");\n        _safeMint(to, _tokenIdCounter.current());\n        _tokenAccessGrants[_tokenIdCounter.current()] = accessGrantId;\n        _tokenIdCounter.increment();\n    }\n\n    function burn(uint tokenId) public override {\n        require(msg.sender == _accessGrant.ownerOf(_tokenAccessGrants[tokenId]), \"Cannot burn tokens for this token Provider\");\n        _burn(tokenId);\n        delete _tokenAccessGrants[tokenId];\n    }\n\n    function tokenProvider(uint tokenId) external view returns (address) {\n        return _accessGrant.ownerOf(_tokenAccessGrants[tokenId]);\n    }\n\n    function supportsInterface(bytes4 interfaceId)\n        public\n        view\n        override(ERC721, AccessControl)\n        returns (bool)\n    {\n        return super.supportsInterface(interfaceId);\n    }\n\n}",
  "sourcePath": "/Users/credmark/repos/access-key-contracts/contracts/AccessToken.sol",
  "compiler": {
    "name": "solc",
    "version": "0.8.7+commit.e28d00a7.Emscripten.clang"
  },
  "schemaVersion": "3.3.3",
  "updatedAt": "2021-09-24T18:00:28.494Z",
  "devdoc": {
    "kind": "dev",
    "methods": {
      "approve(address,uint256)": {
        "details": "See {IERC721-approve}."
      },
      "balanceOf(address)": {
        "details": "See {IERC721-balanceOf}."
      },
      "burn(uint256)": {
        "details": "Burns `tokenId`. See {ERC721-_burn}. Requirements: - The caller must own `tokenId` or be an approved operator."
      },
      "getApproved(uint256)": {
        "details": "See {IERC721-getApproved}."
      },
      "getRoleAdmin(bytes32)": {
        "details": "Returns the admin role that controls `role`. See {grantRole} and {revokeRole}. To change a role's admin, use {_setRoleAdmin}."
      },
      "grantRole(bytes32,address)": {
        "details": "Grants `role` to `account`. If `account` had not been already granted `role`, emits a {RoleGranted} event. Requirements: - the caller must have ``role``'s admin role."
      },
      "hasRole(bytes32,address)": {
        "details": "Returns `true` if `account` has been granted `role`."
      },
      "isApprovedForAll(address,address)": {
        "details": "See {IERC721-isApprovedForAll}."
      },
      "name()": {
        "details": "See {IERC721Metadata-name}."
      },
      "ownerOf(uint256)": {
        "details": "See {IERC721-ownerOf}."
      },
      "renounceRole(bytes32,address)": {
        "details": "Revokes `role` from the calling account. Roles are often managed via {grantRole} and {revokeRole}: this function's purpose is to provide a mechanism for accounts to lose their privileges if they are compromised (such as when a trusted device is misplaced). If the calling account had been granted `role`, emits a {RoleRevoked} event. Requirements: - the caller must be `account`."
      },
      "revokeRole(bytes32,address)": {
        "details": "Revokes `role` from `account`. If `account` had been granted `role`, emits a {RoleRevoked} event. Requirements: - the caller must have ``role``'s admin role."
      },
      "safeTransferFrom(address,address,uint256)": {
        "details": "See {IERC721-safeTransferFrom}."
      },
      "safeTransferFrom(address,address,uint256,bytes)": {
        "details": "See {IERC721-safeTransferFrom}."
      },
      "setApprovalForAll(address,bool)": {
        "details": "See {IERC721-setApprovalForAll}."
      },
      "symbol()": {
        "details": "See {IERC721Metadata-symbol}."
      },
      "tokenURI(uint256)": {
        "details": "See {IERC721Metadata-tokenURI}."
      },
      "transferFrom(address,address,uint256)": {
        "details": "See {IERC721-transferFrom}."
      }
    },
    "version": 1
  },
  "userdoc": {
    "kind": "user",
    "methods": {},
    "version": 1
  }
}