{
  "contractName": "ExponentialEmitter",
  "abi": [
    {
      "inputs": [
        {
          "internalType": "address",
          "name": "_cmk",
          "type": "address"
        },
        {
          "internalType": "address",
          "name": "_sCmk",
          "type": "address"
        },
        {
          "internalType": "uint256",
          "name": "_halfLife",
          "type": "uint256"
        }
      ],
      "stateMutability": "nonpayable",
      "type": "constructor"
    },
    {
      "inputs": [],
      "name": "cmk",
      "outputs": [
        {
          "internalType": "contract ERC20",
          "name": "",
          "type": "address"
        }
      ],
      "stateMutability": "view",
      "type": "function"
    },
    {
      "inputs": [],
      "name": "halfLife",
      "outputs": [
        {
          "internalType": "uint256",
          "name": "",
          "type": "uint256"
        }
      ],
      "stateMutability": "view",
      "type": "function"
    },
    {
      "inputs": [],
      "name": "lastEmitted",
      "outputs": [
        {
          "internalType": "uint256",
          "name": "",
          "type": "uint256"
        }
      ],
      "stateMutability": "view",
      "type": "function"
    },
    {
      "inputs": [],
      "name": "sCmk",
      "outputs": [
        {
          "internalType": "contract ERC20",
          "name": "",
          "type": "address"
        }
      ],
      "stateMutability": "view",
      "type": "function"
    },
    {
      "inputs": [],
      "name": "getEmittable",
      "outputs": [
        {
          "internalType": "uint256",
          "name": "",
          "type": "uint256"
        }
      ],
      "stateMutability": "view",
      "type": "function"
    }
  ],
  "bytecode": "0x608060405234801561001057600080fd5b506040516104a03803806104a0833981810160405281019061003291906100ed565b82600160006101000a81548173ffffffffffffffffffffffffffffffffffffffff021916908373ffffffffffffffffffffffffffffffffffffffff16021790555081600260006101000a81548173ffffffffffffffffffffffffffffffffffffffff021916908373ffffffffffffffffffffffffffffffffffffffff160217905550806003819055505050506101af565b6000815190506100d281610181565b92915050565b6000815190506100e781610198565b92915050565b6000806000606084860312156101065761010561017c565b5b6000610114868287016100c3565b9350506020610125868287016100c3565b9250506040610136868287016100d8565b9150509250925092565b600061014b82610152565b9050919050565b600073ffffffffffffffffffffffffffffffffffffffff82169050919050565b6000819050919050565b600080fd5b61018a81610140565b811461019557600080fd5b50565b6101a181610172565b81146101ac57600080fd5b50565b6102e2806101be6000396000f3fe608060405234801561001057600080fd5b50600436106100575760003560e01c80632f388c151461005c5780637bc90d1c1461007a578063996c0b2914610098578063ef3f197a146100b6578063f28c62d3146100d4575b600080fd5b6100646100f2565b6040516100719190610191565b60405180910390f35b610082610118565b60405161008f91906101ac565b60405180910390f35b6100a061011e565b6040516100ad91906101ac565b60405180910390f35b6100be610124565b6040516100cb9190610191565b60405180910390f35b6100dc61014a565b6040516100e991906101ac565b60405180910390f35b600260009054906101000a900473ffffffffffffffffffffffffffffffffffffffff1681565b60035481565b60045481565b600160009054906101000a900473ffffffffffffffffffffffffffffffffffffffff1681565b6000603c60045461015b91906101c7565b42101561016b5760009050610170565b600090505b90565b61017c81610247565b82525050565b61018b8161023d565b82525050565b60006020820190506101a66000830184610173565b92915050565b60006020820190506101c16000830184610182565b92915050565b60006101d28261023d565b91506101dd8361023d565b9250827fffffffffffffffffffffffffffffffffffffffffffffffffffffffffffffffff038211156102125761021161027d565b5b828201905092915050565b600073ffffffffffffffffffffffffffffffffffffffff82169050919050565b6000819050919050565b600061025282610259565b9050919050565b60006102648261026b565b9050919050565b60006102768261021d565b9050919050565b7f4e487b7100000000000000000000000000000000000000000000000000000000600052601160045260246000fdfea2646970667358221220231c66eb8cace32e5d7cc1ebf631f07c880ccca690e21aa584e973966e5182f164736f6c63430008070033",
  "immutableReferences": {},
  "source": "// SPDX-License-Identifier: MIT\npragma solidity ^0.8.2;\n\nimport \"@openzeppelin/contracts/token/ERC20/ERC20.sol\";\nimport \"@openzeppelin/contracts/utils/Counters.sol\";\nimport \"@openzeppelin/contracts/utils/math/SafeMath.sol\";\n\n\ncontract ExponentialEmitter {\n    using Counters for Counters.Counter;\n    Counters.Counter private _rewardCounter;\n\n    ERC20 public cmk;\n    ERC20 public sCmk;\n    uint public halfLife;\n    uint public lastEmitted;\n\n    constructor(address _cmk, address _sCmk, uint _halfLife) {\n        cmk = ERC20(_cmk);\n        sCmk = ERC20(_sCmk);\n        halfLife = _halfLife;\n    }\n\n    function getEmittable() public view returns (uint) {\n        if (block.timestamp < lastEmitted + 60) {\n            return 0;\n        }\n        return 0;\n    }\n\n}",
  "sourcePath": "/Users/credmark/repos/access-key-contracts/contracts/ExponentialEmitter.sol",
  "compiler": {
    "name": "solc",
    "version": "0.8.7+commit.e28d00a7.Emscripten.clang"
  },
  "schemaVersion": "3.3.3",
  "updatedAt": "2021-10-01T19:43:33.568Z",
  "devdoc": {
    "kind": "dev",
    "methods": {},
    "version": 1
  },
  "userdoc": {
    "kind": "user",
    "methods": {},
    "version": 1
  }
}