{
  "contractName": "StakedCredmark",
  "abi": [
    {
      "inputs": [
        {
          "internalType": "contract IERC20",
          "name": "_credmark",
          "type": "address"
        }
      ],
      "stateMutability": "nonpayable",
      "type": "constructor"
    },
    {
      "anonymous": false,
      "inputs": [
        {
          "indexed": true,
          "internalType": "address",
          "name": "owner",
          "type": "address"
        },
        {
          "indexed": true,
          "internalType": "address",
          "name": "spender",
          "type": "address"
        },
        {
          "indexed": false,
          "internalType": "uint256",
          "name": "value",
          "type": "uint256"
        }
      ],
      "name": "Approval",
      "type": "event"
    },
    {
      "anonymous": false,
      "inputs": [
        {
          "indexed": true,
          "internalType": "address",
          "name": "from",
          "type": "address"
        },
        {
          "indexed": true,
          "internalType": "address",
          "name": "to",
          "type": "address"
        },
        {
          "indexed": false,
          "internalType": "uint256",
          "name": "value",
          "type": "uint256"
        }
      ],
      "name": "Transfer",
      "type": "event"
    },
    {
      "inputs": [
        {
          "internalType": "address",
          "name": "owner",
          "type": "address"
        },
        {
          "internalType": "address",
          "name": "spender",
          "type": "address"
        }
      ],
      "name": "allowance",
      "outputs": [
        {
          "internalType": "uint256",
          "name": "",
          "type": "uint256"
        }
      ],
      "stateMutability": "view",
      "type": "function"
    },
    {
      "inputs": [
        {
          "internalType": "address",
          "name": "spender",
          "type": "address"
        },
        {
          "internalType": "uint256",
          "name": "amount",
          "type": "uint256"
        }
      ],
      "name": "approve",
      "outputs": [
        {
          "internalType": "bool",
          "name": "",
          "type": "bool"
        }
      ],
      "stateMutability": "nonpayable",
      "type": "function"
    },
    {
      "inputs": [
        {
          "internalType": "address",
          "name": "account",
          "type": "address"
        }
      ],
      "name": "balanceOf",
      "outputs": [
        {
          "internalType": "uint256",
          "name": "",
          "type": "uint256"
        }
      ],
      "stateMutability": "view",
      "type": "function"
    },
    {
      "inputs": [],
      "name": "credmark",
      "outputs": [
        {
          "internalType": "contract IERC20",
          "name": "",
          "type": "address"
        }
      ],
      "stateMutability": "view",
      "type": "function"
    },
    {
      "inputs": [],
      "name": "decimals",
      "outputs": [
        {
          "internalType": "uint8",
          "name": "",
          "type": "uint8"
        }
      ],
      "stateMutability": "view",
      "type": "function"
    },
    {
      "inputs": [
        {
          "internalType": "address",
          "name": "spender",
          "type": "address"
        },
        {
          "internalType": "uint256",
          "name": "subtractedValue",
          "type": "uint256"
        }
      ],
      "name": "decreaseAllowance",
      "outputs": [
        {
          "internalType": "bool",
          "name": "",
          "type": "bool"
        }
      ],
      "stateMutability": "nonpayable",
      "type": "function"
    },
    {
      "inputs": [
        {
          "internalType": "address",
          "name": "spender",
          "type": "address"
        },
        {
          "internalType": "uint256",
          "name": "addedValue",
          "type": "uint256"
        }
      ],
      "name": "increaseAllowance",
      "outputs": [
        {
          "internalType": "bool",
          "name": "",
          "type": "bool"
        }
      ],
      "stateMutability": "nonpayable",
      "type": "function"
    },
    {
      "inputs": [],
      "name": "name",
      "outputs": [
        {
          "internalType": "string",
          "name": "",
          "type": "string"
        }
      ],
      "stateMutability": "view",
      "type": "function"
    },
    {
      "inputs": [],
      "name": "symbol",
      "outputs": [
        {
          "internalType": "string",
          "name": "",
          "type": "string"
        }
      ],
      "stateMutability": "view",
      "type": "function"
    },
    {
      "inputs": [],
      "name": "totalSupply",
      "outputs": [
        {
          "internalType": "uint256",
          "name": "",
          "type": "uint256"
        }
      ],
      "stateMutability": "view",
      "type": "function"
    },
    {
      "inputs": [
        {
          "internalType": "address",
          "name": "recipient",
          "type": "address"
        },
        {
          "internalType": "uint256",
          "name": "amount",
          "type": "uint256"
        }
      ],
      "name": "transfer",
      "outputs": [
        {
          "internalType": "bool",
          "name": "",
          "type": "bool"
        }
      ],
      "stateMutability": "nonpayable",
      "type": "function"
    },
    {
      "inputs": [
        {
          "internalType": "address",
          "name": "sender",
          "type": "address"
        },
        {
          "internalType": "address",
          "name": "recipient",
          "type": "address"
        },
        {
          "internalType": "uint256",
          "name": "amount",
          "type": "uint256"
        }
      ],
      "name": "transferFrom",
      "outputs": [
        {
          "internalType": "bool",
          "name": "",
          "type": "bool"
        }
      ],
      "stateMutability": "nonpayable",
      "type": "function"
    },
    {
      "inputs": [
        {
          "internalType": "uint256",
          "name": "_amount",
          "type": "uint256"
        }
      ],
      "name": "stake",
      "outputs": [],
      "stateMutability": "nonpayable",
      "type": "function"
    },
    {
      "inputs": [
        {
          "internalType": "uint256",
          "name": "_share",
          "type": "uint256"
        }
      ],
      "name": "unstake",
      "outputs": [],
      "stateMutability": "nonpayable",
      "type": "function"
    }
  ],
  "bytecode": "0x60806040523480156200001157600080fd5b5060405162002256380380620022568339818101604052810190620000379190620001e6565b6040518060400160405280600e81526020017f5374616b6564437265646d61726b0000000000000000000000000000000000008152506040518060400160405280600481526020017f73434d4b000000000000000000000000000000000000000000000000000000008152508160039080519060200190620000bb9291906200011f565b508060049080519060200190620000d49291906200011f565b50505080600560006101000a81548173ffffffffffffffffffffffffffffffffffffffff021916908373ffffffffffffffffffffffffffffffffffffffff16021790555050620002e4565b8280546200012d9062000260565b90600052602060002090601f0160209004810192826200015157600085556200019d565b82601f106200016c57805160ff19168380011785556200019d565b828001600101855582156200019d579182015b828111156200019c5782518255916020019190600101906200017f565b5b509050620001ac9190620001b0565b5090565b5b80821115620001cb576000816000905550600101620001b1565b5090565b600081519050620001e081620002ca565b92915050565b600060208284031215620001ff57620001fe620002c5565b5b60006200020f84828501620001cf565b91505092915050565b6000620002258262000240565b9050919050565b6000620002398262000218565b9050919050565b600073ffffffffffffffffffffffffffffffffffffffff82169050919050565b600060028204905060018216806200027957607f821691505b6020821081141562000290576200028f62000296565b5b50919050565b7f4e487b7100000000000000000000000000000000000000000000000000000000600052602260045260246000fd5b600080fd5b620002d5816200022c565b8114620002e157600080fd5b50565b611f6280620002f46000396000f3fe608060405234801561001057600080fd5b50600436106100ea5760003560e01c8063526f7aa81161008c578063a457c2d711610066578063a457c2d714610261578063a694fc3a14610291578063a9059cbb146102ad578063dd62ed3e146102dd576100ea565b8063526f7aa8146101f557806370a082311461021357806395d89b4114610243576100ea565b806323b872dd116100c857806323b872dd1461015b5780632e17de781461018b578063313ce567146101a757806339509351146101c5576100ea565b806306fdde03146100ef578063095ea7b31461010d57806318160ddd1461013d575b600080fd5b6100f761030d565b604051610104919061179b565b60405180910390f35b61012760048036038101906101229190611441565b61039f565b6040516101349190611765565b60405180910390f35b6101456103bd565b60405161015291906118fd565b60405180910390f35b610175600480360381019061017091906113ee565b6103c7565b6040516101829190611765565b60405180910390f35b6101a560048036038101906101a091906114ae565b6104bf565b005b6101af61065d565b6040516101bc9190611918565b60405180910390f35b6101df60048036038101906101da9190611441565b610666565b6040516101ec9190611765565b60405180910390f35b6101fd610712565b60405161020a9190611780565b60405180910390f35b61022d60048036038101906102289190611381565b610738565b60405161023a91906118fd565b60405180910390f35b61024b610780565b604051610258919061179b565b60405180910390f35b61027b60048036038101906102769190611441565b610812565b6040516102889190611765565b60405180910390f35b6102ab60048036038101906102a691906114ae565b6108fd565b005b6102c760048036038101906102c29190611441565b610ac7565b6040516102d49190611765565b60405180910390f35b6102f760048036038101906102f291906113ae565b610ae5565b60405161030491906118fd565b60405180910390f35b60606003805461031c90611b22565b80601f016020809104026020016040519081016040528092919081815260200182805461034890611b22565b80156103955780601f1061036a57610100808354040283529160200191610395565b820191906000526020600020905b81548152906001019060200180831161037857829003601f168201915b5050505050905090565b60006103b36103ac610b6c565b8484610b74565b6001905092915050565b6000600254905090565b60006103d4848484610d3f565b6000600160008673ffffffffffffffffffffffffffffffffffffffff1673ffffffffffffffffffffffffffffffffffffffff168152602001908152602001600020600061041f610b6c565b73ffffffffffffffffffffffffffffffffffffffff1673ffffffffffffffffffffffffffffffffffffffff1681526020019081526020016000205490508281101561049f576040517f08c379a00000000000000000000000000000000000000000000000000000000081526004016104969061183d565b60405180910390fd5b6104b3856104ab610b6c565b858403610b74565b60019150509392505050565b60006104c96103bd565b9050600061059c8261058e600560009054906101000a900473ffffffffffffffffffffffffffffffffffffffff1673ffffffffffffffffffffffffffffffffffffffff166370a08231306040518263ffffffff1660e01b815260040161052f91906116ea565b60206040518083038186803b15801561054757600080fd5b505afa15801561055b573d6000803e3d6000fd5b505050506040513d601f19601f8201168201806040525081019061057f91906114db565b86610fc090919063ffffffff16565b610fd690919063ffffffff16565b90506105a83384610fec565b600560009054906101000a900473ffffffffffffffffffffffffffffffffffffffff1673ffffffffffffffffffffffffffffffffffffffff1663a9059cbb33836040518363ffffffff1660e01b815260040161060592919061173c565b602060405180830381600087803b15801561061f57600080fd5b505af1158015610633573d6000803e3d6000fd5b505050506040513d601f19601f820116820180604052508101906106579190611481565b50505050565b60006012905090565b6000610708610673610b6c565b848460016000610681610b6c565b73ffffffffffffffffffffffffffffffffffffffff1673ffffffffffffffffffffffffffffffffffffffff16815260200190815260200160002060008873ffffffffffffffffffffffffffffffffffffffff1673ffffffffffffffffffffffffffffffffffffffff16815260200190815260200160002054610703919061194f565b610b74565b6001905092915050565b600560009054906101000a900473ffffffffffffffffffffffffffffffffffffffff1681565b60008060008373ffffffffffffffffffffffffffffffffffffffff1673ffffffffffffffffffffffffffffffffffffffff168152602001908152602001600020549050919050565b60606004805461078f90611b22565b80601f01602080910402602001604051908101604052809291908181526020018280546107bb90611b22565b80156108085780601f106107dd57610100808354040283529160200191610808565b820191906000526020600020905b8154815290600101906020018083116107eb57829003601f168201915b5050505050905090565b60008060016000610821610b6c565b73ffffffffffffffffffffffffffffffffffffffff1673ffffffffffffffffffffffffffffffffffffffff16815260200190815260200160002060008573ffffffffffffffffffffffffffffffffffffffff1673ffffffffffffffffffffffffffffffffffffffff168152602001908152602001600020549050828110156108de576040517f08c379a00000000000000000000000000000000000000000000000000000000081526004016108d5906118bd565b60405180910390fd5b6108f26108e9610b6c565b85858403610b74565b600191505092915050565b6000600560009054906101000a900473ffffffffffffffffffffffffffffffffffffffff1673ffffffffffffffffffffffffffffffffffffffff166370a08231306040518263ffffffff1660e01b815260040161095a91906116ea565b60206040518083038186803b15801561097257600080fd5b505afa158015610986573d6000803e3d6000fd5b505050506040513d601f19601f820116820180604052508101906109aa91906114db565b905060006109b66103bd565b905060008114806109c75750600082145b156109db576109d633846111c3565b610a10565b6000610a02836109f48487610fc090919063ffffffff16565b610fd690919063ffffffff16565b9050610a0e33826111c3565b505b600560009054906101000a900473ffffffffffffffffffffffffffffffffffffffff1673ffffffffffffffffffffffffffffffffffffffff166323b872dd3330866040518463ffffffff1660e01b8152600401610a6f93929190611705565b602060405180830381600087803b158015610a8957600080fd5b505af1158015610a9d573d6000803e3d6000fd5b505050506040513d601f19601f82011682018060405250810190610ac19190611481565b50505050565b6000610adb610ad4610b6c565b8484610d3f565b6001905092915050565b6000600160008473ffffffffffffffffffffffffffffffffffffffff1673ffffffffffffffffffffffffffffffffffffffff16815260200190815260200160002060008373ffffffffffffffffffffffffffffffffffffffff1673ffffffffffffffffffffffffffffffffffffffff16815260200190815260200160002054905092915050565b600033905090565b600073ffffffffffffffffffffffffffffffffffffffff168373ffffffffffffffffffffffffffffffffffffffff161415610be4576040517f08c379a0000000000000000000000000000000000000000000000000000000008152600401610bdb9061189d565b60405180910390fd5b600073ffffffffffffffffffffffffffffffffffffffff168273ffffffffffffffffffffffffffffffffffffffff161415610c54576040517f08c379a0000000000000000000000000000000000000000000000000000000008152600401610c4b906117fd565b60405180910390fd5b80600160008573ffffffffffffffffffffffffffffffffffffffff1673ffffffffffffffffffffffffffffffffffffffff16815260200190815260200160002060008473ffffffffffffffffffffffffffffffffffffffff1673ffffffffffffffffffffffffffffffffffffffff168152602001908152602001600020819055508173ffffffffffffffffffffffffffffffffffffffff168373ffffffffffffffffffffffffffffffffffffffff167f8c5be1e5ebec7d5bd14f71427d1e84f3dd0314c0f7b2291e5b200ac8c7c3b92583604051610d3291906118fd565b60405180910390a3505050565b600073ffffffffffffffffffffffffffffffffffffffff168373ffffffffffffffffffffffffffffffffffffffff161415610daf576040517f08c379a0000000000000000000000000000000000000000000000000000000008152600401610da69061187d565b60405180910390fd5b600073ffffffffffffffffffffffffffffffffffffffff168273ffffffffffffffffffffffffffffffffffffffff161415610e1f576040517f08c379a0000000000000000000000000000000000000000000000000000000008152600401610e16906117bd565b60405180910390fd5b610e2a838383611323565b60008060008573ffffffffffffffffffffffffffffffffffffffff1673ffffffffffffffffffffffffffffffffffffffff16815260200190815260200160002054905081811015610eb0576040517f08c379a0000000000000000000000000000000000000000000000000000000008152600401610ea79061181d565b60405180910390fd5b8181036000808673ffffffffffffffffffffffffffffffffffffffff1673ffffffffffffffffffffffffffffffffffffffff16815260200190815260200160002081905550816000808573ffffffffffffffffffffffffffffffffffffffff1673ffffffffffffffffffffffffffffffffffffffff1681526020019081526020016000206000828254610f43919061194f565b925050819055508273ffffffffffffffffffffffffffffffffffffffff168473ffffffffffffffffffffffffffffffffffffffff167fddf252ad1be2c89b69c2b068fc378daa952ba7f163c4a11628f55a4df523b3ef84604051610fa791906118fd565b60405180910390a3610fba848484611328565b50505050565b60008183610fce91906119d6565b905092915050565b60008183610fe491906119a5565b905092915050565b600073ffffffffffffffffffffffffffffffffffffffff168273ffffffffffffffffffffffffffffffffffffffff16141561105c576040517f08c379a00000000000000000000000000000000000000000000000000000000081526004016110539061185d565b60405180910390fd5b61106882600083611323565b60008060008473ffffffffffffffffffffffffffffffffffffffff1673ffffffffffffffffffffffffffffffffffffffff168152602001908152602001600020549050818110156110ee576040517f08c379a00000000000000000000000000000000000000000000000000000000081526004016110e5906117dd565b60405180910390fd5b8181036000808573ffffffffffffffffffffffffffffffffffffffff1673ffffffffffffffffffffffffffffffffffffffff1681526020019081526020016000208190555081600260008282546111459190611a30565b92505081905550600073ffffffffffffffffffffffffffffffffffffffff168373ffffffffffffffffffffffffffffffffffffffff167fddf252ad1be2c89b69c2b068fc378daa952ba7f163c4a11628f55a4df523b3ef846040516111aa91906118fd565b60405180910390a36111be83600084611328565b505050565b600073ffffffffffffffffffffffffffffffffffffffff168273ffffffffffffffffffffffffffffffffffffffff161415611233576040517f08c379a000000000000000000000000000000000000000000000000000000000815260040161122a906118dd565b60405180910390fd5b61123f60008383611323565b8060026000828254611251919061194f565b92505081905550806000808473ffffffffffffffffffffffffffffffffffffffff1673ffffffffffffffffffffffffffffffffffffffff16815260200190815260200160002060008282546112a6919061194f565b925050819055508173ffffffffffffffffffffffffffffffffffffffff16600073ffffffffffffffffffffffffffffffffffffffff167fddf252ad1be2c89b69c2b068fc378daa952ba7f163c4a11628f55a4df523b3ef8360405161130b91906118fd565b60405180910390a361131f60008383611328565b5050565b505050565b505050565b60008135905061133c81611ee7565b92915050565b60008151905061135181611efe565b92915050565b60008135905061136681611f15565b92915050565b60008151905061137b81611f15565b92915050565b60006020828403121561139757611396611be1565b5b60006113a58482850161132d565b91505092915050565b600080604083850312156113c5576113c4611be1565b5b60006113d38582860161132d565b92505060206113e48582860161132d565b9150509250929050565b60008060006060848603121561140757611406611be1565b5b60006114158682870161132d565b93505060206114268682870161132d565b925050604061143786828701611357565b9150509250925092565b6000806040838503121561145857611457611be1565b5b60006114668582860161132d565b925050602061147785828601611357565b9150509250929050565b60006020828403121561149757611496611be1565b5b60006114a584828501611342565b91505092915050565b6000602082840312156114c4576114c3611be1565b5b60006114d284828501611357565b91505092915050565b6000602082840312156114f1576114f0611be1565b5b60006114ff8482850161136c565b91505092915050565b61151181611a64565b82525050565b61152081611a76565b82525050565b61152f81611ab9565b82525050565b600061154082611933565b61154a818561193e565b935061155a818560208601611aef565b61156381611be6565b840191505092915050565b600061157b60238361193e565b915061158682611bf7565b604082019050919050565b600061159e60228361193e565b91506115a982611c46565b604082019050919050565b60006115c160228361193e565b91506115cc82611c95565b604082019050919050565b60006115e460268361193e565b91506115ef82611ce4565b604082019050919050565b600061160760288361193e565b915061161282611d33565b604082019050919050565b600061162a60218361193e565b915061163582611d82565b604082019050919050565b600061164d60258361193e565b915061165882611dd1565b604082019050919050565b600061167060248361193e565b915061167b82611e20565b604082019050919050565b600061169360258361193e565b915061169e82611e6f565b604082019050919050565b60006116b6601f8361193e565b91506116c182611ebe565b602082019050919050565b6116d581611aa2565b82525050565b6116e481611aac565b82525050565b60006020820190506116ff6000830184611508565b92915050565b600060608201905061171a6000830186611508565b6117276020830185611508565b61173460408301846116cc565b949350505050565b60006040820190506117516000830185611508565b61175e60208301846116cc565b9392505050565b600060208201905061177a6000830184611517565b92915050565b60006020820190506117956000830184611526565b92915050565b600060208201905081810360008301526117b58184611535565b905092915050565b600060208201905081810360008301526117d68161156e565b9050919050565b600060208201905081810360008301526117f681611591565b9050919050565b60006020820190508181036000830152611816816115b4565b9050919050565b60006020820190508181036000830152611836816115d7565b9050919050565b60006020820190508181036000830152611856816115fa565b9050919050565b600060208201905081810360008301526118768161161d565b9050919050565b6000602082019050818103600083015261189681611640565b9050919050565b600060208201905081810360008301526118b681611663565b9050919050565b600060208201905081810360008301526118d681611686565b9050919050565b600060208201905081810360008301526118f6816116a9565b9050919050565b600060208201905061191260008301846116cc565b92915050565b600060208201905061192d60008301846116db565b92915050565b600081519050919050565b600082825260208201905092915050565b600061195a82611aa2565b915061196583611aa2565b9250827fffffffffffffffffffffffffffffffffffffffffffffffffffffffffffffffff0382111561199a57611999611b54565b5b828201905092915050565b60006119b082611aa2565b91506119bb83611aa2565b9250826119cb576119ca611b83565b5b828204905092915050565b60006119e182611aa2565b91506119ec83611aa2565b9250817fffffffffffffffffffffffffffffffffffffffffffffffffffffffffffffffff0483118215151615611a2557611a24611b54565b5b828202905092915050565b6000611a3b82611aa2565b9150611a4683611aa2565b925082821015611a5957611a58611b54565b5b828203905092915050565b6000611a6f82611a82565b9050919050565b60008115159050919050565b600073ffffffffffffffffffffffffffffffffffffffff82169050919050565b6000819050919050565b600060ff82169050919050565b6000611ac482611acb565b9050919050565b6000611ad682611add565b9050919050565b6000611ae882611a82565b9050919050565b60005b83811015611b0d578082015181840152602081019050611af2565b83811115611b1c576000848401525b50505050565b60006002820490506001821680611b3a57607f821691505b60208210811415611b4e57611b4d611bb2565b5b50919050565b7f4e487b7100000000000000000000000000000000000000000000000000000000600052601160045260246000fd5b7f4e487b7100000000000000000000000000000000000000000000000000000000600052601260045260246000fd5b7f4e487b7100000000000000000000000000000000000000000000000000000000600052602260045260246000fd5b600080fd5b6000601f19601f8301169050919050565b7f45524332303a207472616e7366657220746f20746865207a65726f206164647260008201527f6573730000000000000000000000000000000000000000000000000000000000602082015250565b7f45524332303a206275726e20616d6f756e7420657863656564732062616c616e60008201527f6365000000000000000000000000000000000000000000000000000000000000602082015250565b7f45524332303a20617070726f766520746f20746865207a65726f20616464726560008201527f7373000000000000000000000000000000000000000000000000000000000000602082015250565b7f45524332303a207472616e7366657220616d6f756e742065786365656473206260008201527f616c616e63650000000000000000000000000000000000000000000000000000602082015250565b7f45524332303a207472616e7366657220616d6f756e742065786365656473206160008201527f6c6c6f77616e6365000000000000000000000000000000000000000000000000602082015250565b7f45524332303a206275726e2066726f6d20746865207a65726f2061646472657360008201527f7300000000000000000000000000000000000000000000000000000000000000602082015250565b7f45524332303a207472616e736665722066726f6d20746865207a65726f20616460008201527f6472657373000000000000000000000000000000000000000000000000000000602082015250565b7f45524332303a20617070726f76652066726f6d20746865207a65726f2061646460008201527f7265737300000000000000000000000000000000000000000000000000000000602082015250565b7f45524332303a2064656372656173656420616c6c6f77616e63652062656c6f7760008201527f207a65726f000000000000000000000000000000000000000000000000000000602082015250565b7f45524332303a206d696e7420746f20746865207a65726f206164647265737300600082015250565b611ef081611a64565b8114611efb57600080fd5b50565b611f0781611a76565b8114611f1257600080fd5b50565b611f1e81611aa2565b8114611f2957600080fd5b5056fea26469706673582212208a4447dea5a54247f08d7b1139ae011e014a67e80cfbfb0d7def33bd2729489e64736f6c63430008070033",
  "immutableReferences": {},
  "source": "// SPDX-License-Identifier: MIT\npragma solidity ^0.8.2;\n\nimport \"@openzeppelin/contracts/token/ERC20/ERC20.sol\";\nimport \"@openzeppelin/contracts/utils/Counters.sol\";\nimport \"@openzeppelin/contracts/utils/math/SafeMath.sol\";\n\n\ncontract StakedCredmark is ERC20(\"StakedCredmark\", \"sCMK\"){\n    using SafeMath for uint256;\n    IERC20 public credmark;\n\n    constructor(IERC20 _credmark) public {\n        credmark = _credmark;\n    }\n\n    function stake(uint256 _amount) public {\n        uint256 totalCredmark = credmark.balanceOf(address(this));\n        uint256 totalShares = totalSupply();\n        if (totalShares == 0 || totalCredmark == 0) {\n            _mint(msg.sender, _amount);\n        } else {\n            uint256 what = _amount.mul(totalShares).div(totalCredmark);\n            _mint(msg.sender, what);\n        }\n        credmark.transferFrom(msg.sender, address(this), _amount);\n    }\n\n    function unstake(uint256 _share) public {\n        uint256 totalShares = totalSupply();\n        uint256 what = _share.mul(credmark.balanceOf(address(this))).div(totalShares);\n        _burn(msg.sender, _share);\n        credmark.transfer(msg.sender, what);\n    }\n}",
  "sourcePath": "/Users/credmark/repos/access-key-contracts/contracts/sCMK.sol",
  "compiler": {
    "name": "solc",
    "version": "0.8.7+commit.e28d00a7.Emscripten.clang"
  },
  "schemaVersion": "3.3.3",
  "updatedAt": "2021-10-01T19:43:33.574Z",
  "devdoc": {
    "kind": "dev",
    "methods": {
      "allowance(address,address)": {
        "details": "See {IERC20-allowance}."
      },
      "approve(address,uint256)": {
        "details": "See {IERC20-approve}. Requirements: - `spender` cannot be the zero address."
      },
      "balanceOf(address)": {
        "details": "See {IERC20-balanceOf}."
      },
      "decimals()": {
        "details": "Returns the number of decimals used to get its user representation. For example, if `decimals` equals `2`, a balance of `505` tokens should be displayed to a user as `5.05` (`505 / 10 ** 2`). Tokens usually opt for a value of 18, imitating the relationship between Ether and Wei. This is the value {ERC20} uses, unless this function is overridden; NOTE: This information is only used for _display_ purposes: it in no way affects any of the arithmetic of the contract, including {IERC20-balanceOf} and {IERC20-transfer}."
      },
      "decreaseAllowance(address,uint256)": {
        "details": "Atomically decreases the allowance granted to `spender` by the caller. This is an alternative to {approve} that can be used as a mitigation for problems described in {IERC20-approve}. Emits an {Approval} event indicating the updated allowance. Requirements: - `spender` cannot be the zero address. - `spender` must have allowance for the caller of at least `subtractedValue`."
      },
      "increaseAllowance(address,uint256)": {
        "details": "Atomically increases the allowance granted to `spender` by the caller. This is an alternative to {approve} that can be used as a mitigation for problems described in {IERC20-approve}. Emits an {Approval} event indicating the updated allowance. Requirements: - `spender` cannot be the zero address."
      },
      "name()": {
        "details": "Returns the name of the token."
      },
      "symbol()": {
        "details": "Returns the symbol of the token, usually a shorter version of the name."
      },
      "totalSupply()": {
        "details": "See {IERC20-totalSupply}."
      },
      "transfer(address,uint256)": {
        "details": "See {IERC20-transfer}. Requirements: - `recipient` cannot be the zero address. - the caller must have a balance of at least `amount`."
      },
      "transferFrom(address,address,uint256)": {
        "details": "See {IERC20-transferFrom}. Emits an {Approval} event indicating the updated allowance. This is not required by the EIP. See the note at the beginning of {ERC20}. Requirements: - `sender` and `recipient` cannot be the zero address. - `sender` must have a balance of at least `amount`. - the caller must have allowance for ``sender``'s tokens of at least `amount`."
      }
    },
    "version": 1
  },
  "userdoc": {
    "kind": "user",
    "methods": {},
    "version": 1
  }
}