{
  "contractName": "StakePool",
  "abi": [
    {
      "inputs": [
        {
          "internalType": "address",
          "name": "_cmk",
          "type": "address"
        }
      ],
      "stateMutability": "nonpayable",
      "type": "constructor"
    },
    {
      "inputs": [],
      "name": "cmk",
      "outputs": [
        {
          "internalType": "contract ERC20",
          "name": "",
          "type": "address"
        }
      ],
      "stateMutability": "view",
      "type": "function"
    },
    {
      "inputs": [],
      "name": "sCMK",
      "outputs": [
        {
          "internalType": "address",
          "name": "",
          "type": "address"
        }
      ],
      "stateMutability": "view",
      "type": "function"
    },
    {
      "inputs": [
        {
          "internalType": "uint256",
          "name": "amount",
          "type": "uint256"
        },
        {
          "internalType": "uint256",
          "name": "duration",
          "type": "uint256"
        },
        {
          "internalType": "uint256",
          "name": "starttime",
          "type": "uint256"
        }
      ],
      "name": "addRewards",
      "outputs": [],
      "stateMutability": "nonpayable",
      "type": "function"
    },
    {
      "inputs": [
        {
          "internalType": "uint256",
          "name": "amount",
          "type": "uint256"
        },
        {
          "internalType": "uint256",
          "name": "duration",
          "type": "uint256"
        }
      ],
      "name": "addRewards",
      "outputs": [],
      "stateMutability": "nonpayable",
      "type": "function"
    },
    {
      "inputs": [],
      "name": "totalStakedCmk",
      "outputs": [
        {
          "internalType": "uint256",
          "name": "",
          "type": "uint256"
        }
      ],
      "stateMutability": "view",
      "type": "function"
    }
  ],
  "bytecode": "0x60806040523480156200001157600080fd5b5060405162000bb538038062000bb58339818101604052810190620000379190620001d1565b80600360006101000a81548173ffffffffffffffffffffffffffffffffffffffff021916908373ffffffffffffffffffffffffffffffffffffffff16021790555033600160006101000a81548173ffffffffffffffffffffffffffffffffffffffff021916908373ffffffffffffffffffffffffffffffffffffffff160217905550600360009054906101000a900473ffffffffffffffffffffffffffffffffffffffff1673ffffffffffffffffffffffffffffffffffffffff1663095ea7b3600160009054906101000a900473ffffffffffffffffffffffffffffffffffffffff166a52b7d2dcc80cd2e40000006040518363ffffffff1660e01b81526004016200014592919062000257565b602060405180830381600087803b1580156200016057600080fd5b505af115801562000175573d6000803e3d6000fd5b505050506040513d601f19601f820116820180604052508101906200019b919062000203565b50506200031b565b600081519050620001b481620002e7565b92915050565b600081519050620001cb8162000301565b92915050565b600060208284031215620001ea57620001e9620002e2565b5b6000620001fa84828501620001a3565b91505092915050565b6000602082840312156200021c576200021b620002e2565b5b60006200022c84828501620001ba565b91505092915050565b620002408162000284565b82525050565b6200025181620002ce565b82525050565b60006040820190506200026e600083018562000235565b6200027d602083018462000246565b9392505050565b60006200029182620002a4565b9050919050565b60008115159050919050565b600073ffffffffffffffffffffffffffffffffffffffff82169050919050565b6000819050919050565b6000620002db82620002c4565b9050919050565b600080fd5b620002f28162000284565b8114620002fe57600080fd5b50565b6200030c8162000298565b81146200031857600080fd5b50565b61088a806200032b6000396000f3fe608060405234801561001057600080fd5b50600436106100575760003560e01c806303ae37311461005c57806361ab1411146100785780636492d1c414610096578063ef3f197a146100b4578063fc41aa09146100d2575b600080fd5b610076600480360381019061007191906104df565b6100ee565b005b610080610207565b60405161008d919061055f565b60405180910390f35b61009e61022d565b6040516100ab91906105cc565b60405180910390f35b6100bc6103ad565b6040516100c991906105b1565b60405180910390f35b6100ec60048036038101906100e7919061049f565b6103d3565b005b600360009054906101000a900473ffffffffffffffffffffffffffffffffffffffff1673ffffffffffffffffffffffffffffffffffffffff166323b872dd3330866040518463ffffffff1660e01b815260040161014d9392919061057a565b602060405180830381600087803b15801561016757600080fd5b505af115801561017b573d6000803e3d6000fd5b505050506040513d601f19601f8201168201806040525081019061019f9190610445565b50604051806060016040528084815260200183815260200182815250600260006101c960006103e2565b815260200190815260200160002060008201518160000155602082015181600101556040820151816002015590505061020260006103f0565b505050565b600160009054906101000a900473ffffffffffffffffffffffffffffffffffffffff1681565b600080600360009054906101000a900473ffffffffffffffffffffffffffffffffffffffff1673ffffffffffffffffffffffffffffffffffffffff166370a08231306040518263ffffffff1660e01b815260040161028b919061055f565b60206040518083038186803b1580156102a357600080fd5b505afa1580156102b7573d6000803e3d6000fd5b505050506040513d601f19601f820116820180604052508101906102db9190610472565b905060005b6102ea60006103e2565b8110156103a55760006002600083815260200190815260200160002060010154600260008481526020019081526020016000206002015461032b91906105e7565b905042811115610391576002600083815260200190815260200160002060010154428261035891906106c8565b6002600085815260200190815260200160002060000154610379919061066e565b610383919061063d565b8361038e91906106c8565b92505b50808061039d9061077a565b9150506102e0565b508091505090565b600360009054906101000a900473ffffffffffffffffffffffffffffffffffffffff1681565b6103de8282426100ee565b5050565b600081600001549050919050565b6001816000016000828254019250508190555050565b60008151905061041581610826565b92915050565b60008135905061042a8161083d565b92915050565b60008151905061043f8161083d565b92915050565b60006020828403121561045b5761045a610821565b5b600061046984828501610406565b91505092915050565b60006020828403121561048857610487610821565b5b600061049684828501610430565b91505092915050565b600080604083850312156104b6576104b5610821565b5b60006104c48582860161041b565b92505060206104d58582860161041b565b9150509250929050565b6000806000606084860312156104f8576104f7610821565b5b60006105068682870161041b565b93505060206105178682870161041b565b92505060406105288682870161041b565b9150509250925092565b61053b816106fc565b82525050565b61054a81610744565b82525050565b6105598161073a565b82525050565b60006020820190506105746000830184610532565b92915050565b600060608201905061058f6000830186610532565b61059c6020830185610532565b6105a96040830184610550565b949350505050565b60006020820190506105c66000830184610541565b92915050565b60006020820190506105e16000830184610550565b92915050565b60006105f28261073a565b91506105fd8361073a565b9250827fffffffffffffffffffffffffffffffffffffffffffffffffffffffffffffffff03821115610632576106316107c3565b5b828201905092915050565b60006106488261073a565b91506106538361073a565b925082610663576106626107f2565b5b828204905092915050565b60006106798261073a565b91506106848361073a565b9250817fffffffffffffffffffffffffffffffffffffffffffffffffffffffffffffffff04831182151516156106bd576106bc6107c3565b5b828202905092915050565b60006106d38261073a565b91506106de8361073a565b9250828210156106f1576106f06107c3565b5b828203905092915050565b60006107078261071a565b9050919050565b60008115159050919050565b600073ffffffffffffffffffffffffffffffffffffffff82169050919050565b6000819050919050565b600061074f82610756565b9050919050565b600061076182610768565b9050919050565b60006107738261071a565b9050919050565b60006107858261073a565b91507fffffffffffffffffffffffffffffffffffffffffffffffffffffffffffffffff8214156107b8576107b76107c3565b5b600182019050919050565b7f4e487b7100000000000000000000000000000000000000000000000000000000600052601160045260246000fd5b7f4e487b7100000000000000000000000000000000000000000000000000000000600052601260045260246000fd5b600080fd5b61082f8161070e565b811461083a57600080fd5b50565b6108468161073a565b811461085157600080fd5b5056fea2646970667358221220a2d7e5e4633585f4a4a7b23f0331c3d48b6986da51aab0f73547014765b4968064736f6c63430008070033",
  "immutableReferences": {},
  "source": "// SPDX-License-Identifier: MIT\npragma solidity ^0.8.2;\n\nimport \"@openzeppelin/contracts/token/ERC20/ERC20.sol\";\nimport \"@openzeppelin/contracts/utils/Counters.sol\";\nimport \"@openzeppelin/contracts/utils/math/SafeMath.sol\";\n\ncontract StakePool {\n    using Counters for Counters.Counter;\n    Counters.Counter private _rewardCounter;\n    address public sCMK;\n\n    mapping (uint256 => StakeReward) private _stakeRewards;\n    ERC20 public cmk;\n\n    struct StakeReward {\n        uint256 amount;\n        uint256 duration;\n        uint256 startTime;\n    } \n\n    constructor(address _cmk) {\n        cmk = ERC20(_cmk);\n        sCMK = msg.sender;\n        cmk.approve(sCMK, 100000000000000000000000000);\n    }\n\n    function addRewards(uint256 amount, uint256 duration, uint256 starttime) public {\n        cmk.transferFrom(msg.sender, address(this), amount);\n        _stakeRewards[_rewardCounter.current()] = StakeReward(amount, duration, starttime);\n        _rewardCounter.increment();\n    }\n\n    function addRewards(uint256 amount, uint256 duration) public {\n        addRewards(amount, duration, block.timestamp);\n    }\n\n    function totalStakedCmk() public view returns (uint){\n        uint256 totalBalance = cmk.balanceOf(address(this));\n        for(uint i = 0; i < _rewardCounter.current(); i++){\n            uint endTime = _stakeRewards[i].startTime + _stakeRewards[i].duration;\n            if(endTime > block.timestamp){\n                totalBalance = totalBalance - (_stakeRewards[i].amount * (endTime - block.timestamp) / _stakeRewards[i].duration);\n            }\n        }\n        return totalBalance;\n    }\n}\n\ncontract StakedCredmark is ERC20 {\n    using SafeMath for uint;\n\n    ERC20 public cmk;\n    StakePool public _stakePool;\n\n    constructor(address _cmk)\n        ERC20(\"Staked Credmark\", \"sCMK\")\n    {\n        cmk = ERC20(_cmk);\n        _stakePool = new StakePool(_cmk);\n    }\n\n    function enter(uint256 _amount) public {\n        uint256 totalCmk = _stakePool.totalStakedCmk();\n        uint256 totalShares = totalSupply();\n        if (totalShares == 0 || totalCmk == 0) {\n            _mint(msg.sender, _amount);\n        } \n        else {\n            uint256 what = _amount.mul(totalShares).div(totalCmk);\n            _mint(msg.sender, what);\n        }\n        cmk.transferFrom(msg.sender, address(_stakePool), _amount);\n    }\n\n    function leave(uint256 _share) public {\n        uint256 totalShares = totalSupply();\n        uint256 what = _share.mul(_stakePool.totalStakedCmk()).div(totalShares);\n        _burn(msg.sender, _share);\n        cmk.transferFrom(address(_stakePool), msg.sender, what);\n    }\n}",
  "sourcePath": "/Users/credmark/repos/access-key-contracts/contracts/sCMK.sol",
  "compiler": {
    "name": "solc",
    "version": "0.8.7+commit.e28d00a7.Emscripten.clang"
  },
  "schemaVersion": "3.3.3",
  "updatedAt": "2021-09-24T18:00:28.510Z",
  "devdoc": {
    "kind": "dev",
    "methods": {},
    "version": 1
  },
  "userdoc": {
    "kind": "user",
    "methods": {},
    "version": 1
  }
}