{
  "contractName": "StakedCredmark",
  "abi": [
    {
      "inputs": [
        {
          "internalType": "address",
          "name": "_cmk",
          "type": "address"
        }
      ],
      "stateMutability": "nonpayable",
      "type": "constructor"
    },
    {
      "anonymous": false,
      "inputs": [
        {
          "indexed": true,
          "internalType": "address",
          "name": "owner",
          "type": "address"
        },
        {
          "indexed": true,
          "internalType": "address",
          "name": "spender",
          "type": "address"
        },
        {
          "indexed": false,
          "internalType": "uint256",
          "name": "value",
          "type": "uint256"
        }
      ],
      "name": "Approval",
      "type": "event"
    },
    {
      "anonymous": false,
      "inputs": [
        {
          "indexed": true,
          "internalType": "address",
          "name": "from",
          "type": "address"
        },
        {
          "indexed": true,
          "internalType": "address",
          "name": "to",
          "type": "address"
        },
        {
          "indexed": false,
          "internalType": "uint256",
          "name": "value",
          "type": "uint256"
        }
      ],
      "name": "Transfer",
      "type": "event"
    },
    {
      "inputs": [],
      "name": "_stakePool",
      "outputs": [
        {
          "internalType": "contract StakePool",
          "name": "",
          "type": "address"
        }
      ],
      "stateMutability": "view",
      "type": "function"
    },
    {
      "inputs": [
        {
          "internalType": "address",
          "name": "owner",
          "type": "address"
        },
        {
          "internalType": "address",
          "name": "spender",
          "type": "address"
        }
      ],
      "name": "allowance",
      "outputs": [
        {
          "internalType": "uint256",
          "name": "",
          "type": "uint256"
        }
      ],
      "stateMutability": "view",
      "type": "function"
    },
    {
      "inputs": [
        {
          "internalType": "address",
          "name": "spender",
          "type": "address"
        },
        {
          "internalType": "uint256",
          "name": "amount",
          "type": "uint256"
        }
      ],
      "name": "approve",
      "outputs": [
        {
          "internalType": "bool",
          "name": "",
          "type": "bool"
        }
      ],
      "stateMutability": "nonpayable",
      "type": "function"
    },
    {
      "inputs": [
        {
          "internalType": "address",
          "name": "account",
          "type": "address"
        }
      ],
      "name": "balanceOf",
      "outputs": [
        {
          "internalType": "uint256",
          "name": "",
          "type": "uint256"
        }
      ],
      "stateMutability": "view",
      "type": "function"
    },
    {
      "inputs": [],
      "name": "cmk",
      "outputs": [
        {
          "internalType": "contract ERC20",
          "name": "",
          "type": "address"
        }
      ],
      "stateMutability": "view",
      "type": "function"
    },
    {
      "inputs": [],
      "name": "decimals",
      "outputs": [
        {
          "internalType": "uint8",
          "name": "",
          "type": "uint8"
        }
      ],
      "stateMutability": "view",
      "type": "function"
    },
    {
      "inputs": [
        {
          "internalType": "address",
          "name": "spender",
          "type": "address"
        },
        {
          "internalType": "uint256",
          "name": "subtractedValue",
          "type": "uint256"
        }
      ],
      "name": "decreaseAllowance",
      "outputs": [
        {
          "internalType": "bool",
          "name": "",
          "type": "bool"
        }
      ],
      "stateMutability": "nonpayable",
      "type": "function"
    },
    {
      "inputs": [
        {
          "internalType": "address",
          "name": "spender",
          "type": "address"
        },
        {
          "internalType": "uint256",
          "name": "addedValue",
          "type": "uint256"
        }
      ],
      "name": "increaseAllowance",
      "outputs": [
        {
          "internalType": "bool",
          "name": "",
          "type": "bool"
        }
      ],
      "stateMutability": "nonpayable",
      "type": "function"
    },
    {
      "inputs": [],
      "name": "name",
      "outputs": [
        {
          "internalType": "string",
          "name": "",
          "type": "string"
        }
      ],
      "stateMutability": "view",
      "type": "function"
    },
    {
      "inputs": [],
      "name": "symbol",
      "outputs": [
        {
          "internalType": "string",
          "name": "",
          "type": "string"
        }
      ],
      "stateMutability": "view",
      "type": "function"
    },
    {
      "inputs": [],
      "name": "totalSupply",
      "outputs": [
        {
          "internalType": "uint256",
          "name": "",
          "type": "uint256"
        }
      ],
      "stateMutability": "view",
      "type": "function"
    },
    {
      "inputs": [
        {
          "internalType": "address",
          "name": "recipient",
          "type": "address"
        },
        {
          "internalType": "uint256",
          "name": "amount",
          "type": "uint256"
        }
      ],
      "name": "transfer",
      "outputs": [
        {
          "internalType": "bool",
          "name": "",
          "type": "bool"
        }
      ],
      "stateMutability": "nonpayable",
      "type": "function"
    },
    {
      "inputs": [
        {
          "internalType": "address",
          "name": "sender",
          "type": "address"
        },
        {
          "internalType": "address",
          "name": "recipient",
          "type": "address"
        },
        {
          "internalType": "uint256",
          "name": "amount",
          "type": "uint256"
        }
      ],
      "name": "transferFrom",
      "outputs": [
        {
          "internalType": "bool",
          "name": "",
          "type": "bool"
        }
      ],
      "stateMutability": "nonpayable",
      "type": "function"
    },
    {
      "inputs": [
        {
          "internalType": "uint256",
          "name": "_amount",
          "type": "uint256"
        }
      ],
      "name": "enter",
      "outputs": [],
      "stateMutability": "nonpayable",
      "type": "function"
    },
    {
      "inputs": [
        {
          "internalType": "uint256",
          "name": "_share",
          "type": "uint256"
        }
      ],
      "name": "leave",
      "outputs": [],
      "stateMutability": "nonpayable",
      "type": "function"
    }
  ],
  "bytecode": "0x60806040523480156200001157600080fd5b5060405162002f2338038062002f2383398181016040528101906200003791906200026d565b6040518060400160405280600f81526020017f5374616b656420437265646d61726b00000000000000000000000000000000008152506040518060400160405280600481526020017f73434d4b000000000000000000000000000000000000000000000000000000008152508160039080519060200190620000bb92919062000198565b508060049080519060200190620000d492919062000198565b50505080600560006101000a81548173ffffffffffffffffffffffffffffffffffffffff021916908373ffffffffffffffffffffffffffffffffffffffff16021790555080604051620001279062000229565b620001339190620002b0565b604051809103906000f08015801562000150573d6000803e3d6000fd5b50600660006101000a81548173ffffffffffffffffffffffffffffffffffffffff021916908373ffffffffffffffffffffffffffffffffffffffff1602179055505062000385565b828054620001a69062000301565b90600052602060002090601f016020900481019282620001ca576000855562000216565b82601f10620001e557805160ff191683800117855562000216565b8280016001018555821562000216579182015b8281111562000215578251825591602001919060010190620001f8565b5b50905062000225919062000237565b5090565b610bb5806200236e83390190565b5b808211156200025257600081600090555060010162000238565b5090565b60008151905062000267816200036b565b92915050565b60006020828403121562000286576200028562000366565b5b6000620002968482850162000256565b91505092915050565b620002aa81620002cd565b82525050565b6000602082019050620002c760008301846200029f565b92915050565b6000620002da82620002e1565b9050919050565b600073ffffffffffffffffffffffffffffffffffffffff82169050919050565b600060028204905060018216806200031a57607f821691505b6020821081141562000331576200033062000337565b5b50919050565b7f4e487b7100000000000000000000000000000000000000000000000000000000600052602260045260246000fd5b600080fd5b6200037681620002cd565b81146200038257600080fd5b50565b611fd980620003956000396000f3fe608060405234801561001057600080fd5b50600436106100f55760003560e01c806370a0823111610097578063a9059cbb11610066578063a9059cbb1461029a578063dd62ed3e146102ca578063ef3f197a146102fa578063f40c5adc14610318576100f5565b806370a082311461020057806395d89b4114610230578063a457c2d71461024e578063a59f3e0c1461027e576100f5565b806323b872dd116100d357806323b872dd14610166578063313ce5671461019657806339509351146101b457806367dfd4c9146101e4576100f5565b806306fdde03146100fa578063095ea7b31461011857806318160ddd14610148575b600080fd5b610102610336565b60405161010f9190611800565b60405180910390f35b610132600480360381019061012d91906114c0565b6103c8565b60405161013f91906117af565b60405180910390f35b6101506103e6565b60405161015d9190611962565b60405180910390f35b610180600480360381019061017b919061146d565b6103f0565b60405161018d91906117af565b60405180910390f35b61019e6104e8565b6040516101ab919061197d565b60405180910390f35b6101ce60048036038101906101c991906114c0565b6104f1565b6040516101db91906117af565b60405180910390f35b6101fe60048036038101906101f9919061152d565b61059d565b005b61021a60048036038101906102159190611400565b610754565b6040516102279190611962565b60405180910390f35b61023861079c565b6040516102459190611800565b60405180910390f35b610268600480360381019061026391906114c0565b61082e565b60405161027591906117af565b60405180910390f35b6102986004803603810190610293919061152d565b610919565b005b6102b460048036038101906102af91906114c0565b610afa565b6040516102c191906117af565b60405180910390f35b6102e460048036038101906102df919061142d565b610b18565b6040516102f19190611962565b60405180910390f35b610302610b9f565b60405161030f91906117ca565b60405180910390f35b610320610bc5565b60405161032d91906117e5565b60405180910390f35b60606003805461034590611b99565b80601f016020809104026020016040519081016040528092919081815260200182805461037190611b99565b80156103be5780601f10610393576101008083540402835291602001916103be565b820191906000526020600020905b8154815290600101906020018083116103a157829003601f168201915b5050505050905090565b60006103dc6103d5610beb565b8484610bf3565b6001905092915050565b6000600254905090565b60006103fd848484610dbe565b6000600160008673ffffffffffffffffffffffffffffffffffffffff1673ffffffffffffffffffffffffffffffffffffffff1681526020019081526020016000206000610448610beb565b73ffffffffffffffffffffffffffffffffffffffff1673ffffffffffffffffffffffffffffffffffffffff168152602001908152602001600020549050828110156104c8576040517f08c379a00000000000000000000000000000000000000000000000000000000081526004016104bf906118a2565b60405180910390fd5b6104dc856104d4610beb565b858403610bf3565b60019150509392505050565b60006012905090565b60006105936104fe610beb565b84846001600061050c610beb565b73ffffffffffffffffffffffffffffffffffffffff1673ffffffffffffffffffffffffffffffffffffffff16815260200190815260200160002060008873ffffffffffffffffffffffffffffffffffffffff1673ffffffffffffffffffffffffffffffffffffffff1681526020019081526020016000205461058e91906119b4565b610bf3565b6001905092915050565b60006105a76103e6565b9050600061066f82610661600660009054906101000a900473ffffffffffffffffffffffffffffffffffffffff1673ffffffffffffffffffffffffffffffffffffffff16636492d1c46040518163ffffffff1660e01b815260040160206040518083038186803b15801561061a57600080fd5b505afa15801561062e573d6000803e3d6000fd5b505050506040513d601f19601f82011682018060405250810190610652919061155a565b8661103f90919063ffffffff16565b61105590919063ffffffff16565b905061067b338461106b565b600560009054906101000a900473ffffffffffffffffffffffffffffffffffffffff1673ffffffffffffffffffffffffffffffffffffffff166323b872dd600660009054906101000a900473ffffffffffffffffffffffffffffffffffffffff1633846040518463ffffffff1660e01b81526004016106fc93929190611778565b602060405180830381600087803b15801561071657600080fd5b505af115801561072a573d6000803e3d6000fd5b505050506040513d601f19601f8201168201806040525081019061074e9190611500565b50505050565b60008060008373ffffffffffffffffffffffffffffffffffffffff1673ffffffffffffffffffffffffffffffffffffffff168152602001908152602001600020549050919050565b6060600480546107ab90611b99565b80601f01602080910402602001604051908101604052809291908181526020018280546107d790611b99565b80156108245780601f106107f957610100808354040283529160200191610824565b820191906000526020600020905b81548152906001019060200180831161080757829003601f168201915b5050505050905090565b6000806001600061083d610beb565b73ffffffffffffffffffffffffffffffffffffffff1673ffffffffffffffffffffffffffffffffffffffff16815260200190815260200160002060008573ffffffffffffffffffffffffffffffffffffffff1673ffffffffffffffffffffffffffffffffffffffff168152602001908152602001600020549050828110156108fa576040517f08c379a00000000000000000000000000000000000000000000000000000000081526004016108f190611922565b60405180910390fd5b61090e610905610beb565b85858403610bf3565b600191505092915050565b6000600660009054906101000a900473ffffffffffffffffffffffffffffffffffffffff1673ffffffffffffffffffffffffffffffffffffffff16636492d1c46040518163ffffffff1660e01b815260040160206040518083038186803b15801561098357600080fd5b505afa158015610997573d6000803e3d6000fd5b505050506040513d601f19601f820116820180604052508101906109bb919061155a565b905060006109c76103e6565b905060008114806109d85750600082145b156109ec576109e73384611242565b610a21565b6000610a1383610a05848761103f90919063ffffffff16565b61105590919063ffffffff16565b9050610a1f3382611242565b505b600560009054906101000a900473ffffffffffffffffffffffffffffffffffffffff1673ffffffffffffffffffffffffffffffffffffffff166323b872dd33600660009054906101000a900473ffffffffffffffffffffffffffffffffffffffff16866040518463ffffffff1660e01b8152600401610aa293929190611778565b602060405180830381600087803b158015610abc57600080fd5b505af1158015610ad0573d6000803e3d6000fd5b505050506040513d601f19601f82011682018060405250810190610af49190611500565b50505050565b6000610b0e610b07610beb565b8484610dbe565b6001905092915050565b6000600160008473ffffffffffffffffffffffffffffffffffffffff1673ffffffffffffffffffffffffffffffffffffffff16815260200190815260200160002060008373ffffffffffffffffffffffffffffffffffffffff1673ffffffffffffffffffffffffffffffffffffffff16815260200190815260200160002054905092915050565b600560009054906101000a900473ffffffffffffffffffffffffffffffffffffffff1681565b600660009054906101000a900473ffffffffffffffffffffffffffffffffffffffff1681565b600033905090565b600073ffffffffffffffffffffffffffffffffffffffff168373ffffffffffffffffffffffffffffffffffffffff161415610c63576040517f08c379a0000000000000000000000000000000000000000000000000000000008152600401610c5a90611902565b60405180910390fd5b600073ffffffffffffffffffffffffffffffffffffffff168273ffffffffffffffffffffffffffffffffffffffff161415610cd3576040517f08c379a0000000000000000000000000000000000000000000000000000000008152600401610cca90611862565b60405180910390fd5b80600160008573ffffffffffffffffffffffffffffffffffffffff1673ffffffffffffffffffffffffffffffffffffffff16815260200190815260200160002060008473ffffffffffffffffffffffffffffffffffffffff1673ffffffffffffffffffffffffffffffffffffffff168152602001908152602001600020819055508173ffffffffffffffffffffffffffffffffffffffff168373ffffffffffffffffffffffffffffffffffffffff167f8c5be1e5ebec7d5bd14f71427d1e84f3dd0314c0f7b2291e5b200ac8c7c3b92583604051610db19190611962565b60405180910390a3505050565b600073ffffffffffffffffffffffffffffffffffffffff168373ffffffffffffffffffffffffffffffffffffffff161415610e2e576040517f08c379a0000000000000000000000000000000000000000000000000000000008152600401610e25906118e2565b60405180910390fd5b600073ffffffffffffffffffffffffffffffffffffffff168273ffffffffffffffffffffffffffffffffffffffff161415610e9e576040517f08c379a0000000000000000000000000000000000000000000000000000000008152600401610e9590611822565b60405180910390fd5b610ea98383836113a2565b60008060008573ffffffffffffffffffffffffffffffffffffffff1673ffffffffffffffffffffffffffffffffffffffff16815260200190815260200160002054905081811015610f2f576040517f08c379a0000000000000000000000000000000000000000000000000000000008152600401610f2690611882565b60405180910390fd5b8181036000808673ffffffffffffffffffffffffffffffffffffffff1673ffffffffffffffffffffffffffffffffffffffff16815260200190815260200160002081905550816000808573ffffffffffffffffffffffffffffffffffffffff1673ffffffffffffffffffffffffffffffffffffffff1681526020019081526020016000206000828254610fc291906119b4565b925050819055508273ffffffffffffffffffffffffffffffffffffffff168473ffffffffffffffffffffffffffffffffffffffff167fddf252ad1be2c89b69c2b068fc378daa952ba7f163c4a11628f55a4df523b3ef846040516110269190611962565b60405180910390a36110398484846113a7565b50505050565b6000818361104d9190611a3b565b905092915050565b600081836110639190611a0a565b905092915050565b600073ffffffffffffffffffffffffffffffffffffffff168273ffffffffffffffffffffffffffffffffffffffff1614156110db576040517f08c379a00000000000000000000000000000000000000000000000000000000081526004016110d2906118c2565b60405180910390fd5b6110e7826000836113a2565b60008060008473ffffffffffffffffffffffffffffffffffffffff1673ffffffffffffffffffffffffffffffffffffffff1681526020019081526020016000205490508181101561116d576040517f08c379a000000000000000000000000000000000000000000000000000000000815260040161116490611842565b60405180910390fd5b8181036000808573ffffffffffffffffffffffffffffffffffffffff1673ffffffffffffffffffffffffffffffffffffffff1681526020019081526020016000208190555081600260008282546111c49190611a95565b92505081905550600073ffffffffffffffffffffffffffffffffffffffff168373ffffffffffffffffffffffffffffffffffffffff167fddf252ad1be2c89b69c2b068fc378daa952ba7f163c4a11628f55a4df523b3ef846040516112299190611962565b60405180910390a361123d836000846113a7565b505050565b600073ffffffffffffffffffffffffffffffffffffffff168273ffffffffffffffffffffffffffffffffffffffff1614156112b2576040517f08c379a00000000000000000000000000000000000000000000000000000000081526004016112a990611942565b60405180910390fd5b6112be600083836113a2565b80600260008282546112d091906119b4565b92505081905550806000808473ffffffffffffffffffffffffffffffffffffffff1673ffffffffffffffffffffffffffffffffffffffff168152602001908152602001600020600082825461132591906119b4565b925050819055508173ffffffffffffffffffffffffffffffffffffffff16600073ffffffffffffffffffffffffffffffffffffffff167fddf252ad1be2c89b69c2b068fc378daa952ba7f163c4a11628f55a4df523b3ef8360405161138a9190611962565b60405180910390a361139e600083836113a7565b5050565b505050565b505050565b6000813590506113bb81611f5e565b92915050565b6000815190506113d081611f75565b92915050565b6000813590506113e581611f8c565b92915050565b6000815190506113fa81611f8c565b92915050565b60006020828403121561141657611415611c58565b5b6000611424848285016113ac565b91505092915050565b6000806040838503121561144457611443611c58565b5b6000611452858286016113ac565b9250506020611463858286016113ac565b9150509250929050565b60008060006060848603121561148657611485611c58565b5b6000611494868287016113ac565b93505060206114a5868287016113ac565b92505060406114b6868287016113d6565b9150509250925092565b600080604083850312156114d7576114d6611c58565b5b60006114e5858286016113ac565b92505060206114f6858286016113d6565b9150509250929050565b60006020828403121561151657611515611c58565b5b6000611524848285016113c1565b91505092915050565b60006020828403121561154357611542611c58565b5b6000611551848285016113d6565b91505092915050565b6000602082840312156115705761156f611c58565b5b600061157e848285016113eb565b91505092915050565b61159081611ac9565b82525050565b61159f81611adb565b82525050565b6115ae81611b1e565b82525050565b6115bd81611b30565b82525050565b60006115ce82611998565b6115d881856119a3565b93506115e8818560208601611b66565b6115f181611c5d565b840191505092915050565b60006116096023836119a3565b915061161482611c6e565b604082019050919050565b600061162c6022836119a3565b915061163782611cbd565b604082019050919050565b600061164f6022836119a3565b915061165a82611d0c565b604082019050919050565b60006116726026836119a3565b915061167d82611d5b565b604082019050919050565b60006116956028836119a3565b91506116a082611daa565b604082019050919050565b60006116b86021836119a3565b91506116c382611df9565b604082019050919050565b60006116db6025836119a3565b91506116e682611e48565b604082019050919050565b60006116fe6024836119a3565b915061170982611e97565b604082019050919050565b60006117216025836119a3565b915061172c82611ee6565b604082019050919050565b6000611744601f836119a3565b915061174f82611f35565b602082019050919050565b61176381611b07565b82525050565b61177281611b11565b82525050565b600060608201905061178d6000830186611587565b61179a6020830185611587565b6117a7604083018461175a565b949350505050565b60006020820190506117c46000830184611596565b92915050565b60006020820190506117df60008301846115a5565b92915050565b60006020820190506117fa60008301846115b4565b92915050565b6000602082019050818103600083015261181a81846115c3565b905092915050565b6000602082019050818103600083015261183b816115fc565b9050919050565b6000602082019050818103600083015261185b8161161f565b9050919050565b6000602082019050818103600083015261187b81611642565b9050919050565b6000602082019050818103600083015261189b81611665565b9050919050565b600060208201905081810360008301526118bb81611688565b9050919050565b600060208201905081810360008301526118db816116ab565b9050919050565b600060208201905081810360008301526118fb816116ce565b9050919050565b6000602082019050818103600083015261191b816116f1565b9050919050565b6000602082019050818103600083015261193b81611714565b9050919050565b6000602082019050818103600083015261195b81611737565b9050919050565b6000602082019050611977600083018461175a565b92915050565b60006020820190506119926000830184611769565b92915050565b600081519050919050565b600082825260208201905092915050565b60006119bf82611b07565b91506119ca83611b07565b9250827fffffffffffffffffffffffffffffffffffffffffffffffffffffffffffffffff038211156119ff576119fe611bcb565b5b828201905092915050565b6000611a1582611b07565b9150611a2083611b07565b925082611a3057611a2f611bfa565b5b828204905092915050565b6000611a4682611b07565b9150611a5183611b07565b9250817fffffffffffffffffffffffffffffffffffffffffffffffffffffffffffffffff0483118215151615611a8a57611a89611bcb565b5b828202905092915050565b6000611aa082611b07565b9150611aab83611b07565b925082821015611abe57611abd611bcb565b5b828203905092915050565b6000611ad482611ae7565b9050919050565b60008115159050919050565b600073ffffffffffffffffffffffffffffffffffffffff82169050919050565b6000819050919050565b600060ff82169050919050565b6000611b2982611b42565b9050919050565b6000611b3b82611b42565b9050919050565b6000611b4d82611b54565b9050919050565b6000611b5f82611ae7565b9050919050565b60005b83811015611b84578082015181840152602081019050611b69565b83811115611b93576000848401525b50505050565b60006002820490506001821680611bb157607f821691505b60208210811415611bc557611bc4611c29565b5b50919050565b7f4e487b7100000000000000000000000000000000000000000000000000000000600052601160045260246000fd5b7f4e487b7100000000000000000000000000000000000000000000000000000000600052601260045260246000fd5b7f4e487b7100000000000000000000000000000000000000000000000000000000600052602260045260246000fd5b600080fd5b6000601f19601f8301169050919050565b7f45524332303a207472616e7366657220746f20746865207a65726f206164647260008201527f6573730000000000000000000000000000000000000000000000000000000000602082015250565b7f45524332303a206275726e20616d6f756e7420657863656564732062616c616e60008201527f6365000000000000000000000000000000000000000000000000000000000000602082015250565b7f45524332303a20617070726f766520746f20746865207a65726f20616464726560008201527f7373000000000000000000000000000000000000000000000000000000000000602082015250565b7f45524332303a207472616e7366657220616d6f756e742065786365656473206260008201527f616c616e63650000000000000000000000000000000000000000000000000000602082015250565b7f45524332303a207472616e7366657220616d6f756e742065786365656473206160008201527f6c6c6f77616e6365000000000000000000000000000000000000000000000000602082015250565b7f45524332303a206275726e2066726f6d20746865207a65726f2061646472657360008201527f7300000000000000000000000000000000000000000000000000000000000000602082015250565b7f45524332303a207472616e736665722066726f6d20746865207a65726f20616460008201527f6472657373000000000000000000000000000000000000000000000000000000602082015250565b7f45524332303a20617070726f76652066726f6d20746865207a65726f2061646460008201527f7265737300000000000000000000000000000000000000000000000000000000602082015250565b7f45524332303a2064656372656173656420616c6c6f77616e63652062656c6f7760008201527f207a65726f000000000000000000000000000000000000000000000000000000602082015250565b7f45524332303a206d696e7420746f20746865207a65726f206164647265737300600082015250565b611f6781611ac9565b8114611f7257600080fd5b50565b611f7e81611adb565b8114611f8957600080fd5b50565b611f9581611b07565b8114611fa057600080fd5b5056fea26469706673582212200b2d6c3a7d830e2df5d88f3b2300bc8523f9fcc2103f3026294cd09c52a1bdf864736f6c6343000807003360806040523480156200001157600080fd5b5060405162000bb538038062000bb58339818101604052810190620000379190620001d1565b80600360006101000a81548173ffffffffffffffffffffffffffffffffffffffff021916908373ffffffffffffffffffffffffffffffffffffffff16021790555033600160006101000a81548173ffffffffffffffffffffffffffffffffffffffff021916908373ffffffffffffffffffffffffffffffffffffffff160217905550600360009054906101000a900473ffffffffffffffffffffffffffffffffffffffff1673ffffffffffffffffffffffffffffffffffffffff1663095ea7b3600160009054906101000a900473ffffffffffffffffffffffffffffffffffffffff166a52b7d2dcc80cd2e40000006040518363ffffffff1660e01b81526004016200014592919062000257565b602060405180830381600087803b1580156200016057600080fd5b505af115801562000175573d6000803e3d6000fd5b505050506040513d601f19601f820116820180604052508101906200019b919062000203565b50506200031b565b600081519050620001b481620002e7565b92915050565b600081519050620001cb8162000301565b92915050565b600060208284031215620001ea57620001e9620002e2565b5b6000620001fa84828501620001a3565b91505092915050565b6000602082840312156200021c576200021b620002e2565b5b60006200022c84828501620001ba565b91505092915050565b620002408162000284565b82525050565b6200025181620002ce565b82525050565b60006040820190506200026e600083018562000235565b6200027d602083018462000246565b9392505050565b60006200029182620002a4565b9050919050565b60008115159050919050565b600073ffffffffffffffffffffffffffffffffffffffff82169050919050565b6000819050919050565b6000620002db82620002c4565b9050919050565b600080fd5b620002f28162000284565b8114620002fe57600080fd5b50565b6200030c8162000298565b81146200031857600080fd5b50565b61088a806200032b6000396000f3fe608060405234801561001057600080fd5b50600436106100575760003560e01c806303ae37311461005c57806361ab1411146100785780636492d1c414610096578063ef3f197a146100b4578063fc41aa09146100d2575b600080fd5b610076600480360381019061007191906104df565b6100ee565b005b610080610207565b60405161008d919061055f565b60405180910390f35b61009e61022d565b6040516100ab91906105cc565b60405180910390f35b6100bc6103ad565b6040516100c991906105b1565b60405180910390f35b6100ec60048036038101906100e7919061049f565b6103d3565b005b600360009054906101000a900473ffffffffffffffffffffffffffffffffffffffff1673ffffffffffffffffffffffffffffffffffffffff166323b872dd3330866040518463ffffffff1660e01b815260040161014d9392919061057a565b602060405180830381600087803b15801561016757600080fd5b505af115801561017b573d6000803e3d6000fd5b505050506040513d601f19601f8201168201806040525081019061019f9190610445565b50604051806060016040528084815260200183815260200182815250600260006101c960006103e2565b815260200190815260200160002060008201518160000155602082015181600101556040820151816002015590505061020260006103f0565b505050565b600160009054906101000a900473ffffffffffffffffffffffffffffffffffffffff1681565b600080600360009054906101000a900473ffffffffffffffffffffffffffffffffffffffff1673ffffffffffffffffffffffffffffffffffffffff166370a08231306040518263ffffffff1660e01b815260040161028b919061055f565b60206040518083038186803b1580156102a357600080fd5b505afa1580156102b7573d6000803e3d6000fd5b505050506040513d601f19601f820116820180604052508101906102db9190610472565b905060005b6102ea60006103e2565b8110156103a55760006002600083815260200190815260200160002060010154600260008481526020019081526020016000206002015461032b91906105e7565b905042811115610391576002600083815260200190815260200160002060010154428261035891906106c8565b6002600085815260200190815260200160002060000154610379919061066e565b610383919061063d565b8361038e91906106c8565b92505b50808061039d9061077a565b9150506102e0565b508091505090565b600360009054906101000a900473ffffffffffffffffffffffffffffffffffffffff1681565b6103de8282426100ee565b5050565b600081600001549050919050565b6001816000016000828254019250508190555050565b60008151905061041581610826565b92915050565b60008135905061042a8161083d565b92915050565b60008151905061043f8161083d565b92915050565b60006020828403121561045b5761045a610821565b5b600061046984828501610406565b91505092915050565b60006020828403121561048857610487610821565b5b600061049684828501610430565b91505092915050565b600080604083850312156104b6576104b5610821565b5b60006104c48582860161041b565b92505060206104d58582860161041b565b9150509250929050565b6000806000606084860312156104f8576104f7610821565b5b60006105068682870161041b565b93505060206105178682870161041b565b92505060406105288682870161041b565b9150509250925092565b61053b816106fc565b82525050565b61054a81610744565b82525050565b6105598161073a565b82525050565b60006020820190506105746000830184610532565b92915050565b600060608201905061058f6000830186610532565b61059c6020830185610532565b6105a96040830184610550565b949350505050565b60006020820190506105c66000830184610541565b92915050565b60006020820190506105e16000830184610550565b92915050565b60006105f28261073a565b91506105fd8361073a565b9250827fffffffffffffffffffffffffffffffffffffffffffffffffffffffffffffffff03821115610632576106316107c3565b5b828201905092915050565b60006106488261073a565b91506106538361073a565b925082610663576106626107f2565b5b828204905092915050565b60006106798261073a565b91506106848361073a565b9250817fffffffffffffffffffffffffffffffffffffffffffffffffffffffffffffffff04831182151516156106bd576106bc6107c3565b5b828202905092915050565b60006106d38261073a565b91506106de8361073a565b9250828210156106f1576106f06107c3565b5b828203905092915050565b60006107078261071a565b9050919050565b60008115159050919050565b600073ffffffffffffffffffffffffffffffffffffffff82169050919050565b6000819050919050565b600061074f82610756565b9050919050565b600061076182610768565b9050919050565b60006107738261071a565b9050919050565b60006107858261073a565b91507fffffffffffffffffffffffffffffffffffffffffffffffffffffffffffffffff8214156107b8576107b76107c3565b5b600182019050919050565b7f4e487b7100000000000000000000000000000000000000000000000000000000600052601160045260246000fd5b7f4e487b7100000000000000000000000000000000000000000000000000000000600052601260045260246000fd5b600080fd5b61082f8161070e565b811461083a57600080fd5b50565b6108468161073a565b811461085157600080fd5b5056fea2646970667358221220a2d7e5e4633585f4a4a7b23f0331c3d48b6986da51aab0f73547014765b4968064736f6c63430008070033",
  "immutableReferences": {},
  "source": "// SPDX-License-Identifier: MIT\npragma solidity ^0.8.2;\n\nimport \"@openzeppelin/contracts/token/ERC20/ERC20.sol\";\nimport \"@openzeppelin/contracts/utils/Counters.sol\";\nimport \"@openzeppelin/contracts/utils/math/SafeMath.sol\";\n\ncontract StakePool {\n    using Counters for Counters.Counter;\n    Counters.Counter private _rewardCounter;\n    address public sCMK;\n\n    mapping (uint256 => StakeReward) private _stakeRewards;\n    ERC20 public cmk;\n\n    struct StakeReward {\n        uint256 amount;\n        uint256 duration;\n        uint256 startTime;\n    } \n\n    constructor(address _cmk) {\n        cmk = ERC20(_cmk);\n        sCMK = msg.sender;\n        cmk.approve(sCMK, 100000000000000000000000000);\n    }\n\n    function addRewards(uint256 amount, uint256 duration, uint256 starttime) public {\n        cmk.transferFrom(msg.sender, address(this), amount);\n        _stakeRewards[_rewardCounter.current()] = StakeReward(amount, duration, starttime);\n        _rewardCounter.increment();\n    }\n\n    function addRewards(uint256 amount, uint256 duration) public {\n        addRewards(amount, duration, block.timestamp);\n    }\n\n    function totalStakedCmk() public view returns (uint){\n        uint256 totalBalance = cmk.balanceOf(address(this));\n        for(uint i = 0; i < _rewardCounter.current(); i++){\n            uint endTime = _stakeRewards[i].startTime + _stakeRewards[i].duration;\n            if(endTime > block.timestamp){\n                totalBalance = totalBalance - (_stakeRewards[i].amount * (endTime - block.timestamp) / _stakeRewards[i].duration);\n            }\n        }\n        return totalBalance;\n    }\n}\n\ncontract StakedCredmark is ERC20 {\n    using SafeMath for uint;\n\n    ERC20 public cmk;\n    StakePool public _stakePool;\n\n    constructor(address _cmk)\n        ERC20(\"Staked Credmark\", \"sCMK\")\n    {\n        cmk = ERC20(_cmk);\n        _stakePool = new StakePool(_cmk);\n    }\n\n    function enter(uint256 _amount) public {\n        uint256 totalCmk = _stakePool.totalStakedCmk();\n        uint256 totalShares = totalSupply();\n        if (totalShares == 0 || totalCmk == 0) {\n            _mint(msg.sender, _amount);\n        } \n        else {\n            uint256 what = _amount.mul(totalShares).div(totalCmk);\n            _mint(msg.sender, what);\n        }\n        cmk.transferFrom(msg.sender, address(_stakePool), _amount);\n    }\n\n    function leave(uint256 _share) public {\n        uint256 totalShares = totalSupply();\n        uint256 what = _share.mul(_stakePool.totalStakedCmk()).div(totalShares);\n        _burn(msg.sender, _share);\n        cmk.transferFrom(address(_stakePool), msg.sender, what);\n    }\n}",
  "sourcePath": "/Users/credmark/repos/access-key-contracts/contracts/sCMK.sol",
  "compiler": {
    "name": "solc",
    "version": "0.8.7+commit.e28d00a7.Emscripten.clang"
  },
  "schemaVersion": "3.3.3",
  "updatedAt": "2021-09-24T18:00:28.515Z",
  "devdoc": {
    "kind": "dev",
    "methods": {
      "allowance(address,address)": {
        "details": "See {IERC20-allowance}."
      },
      "approve(address,uint256)": {
        "details": "See {IERC20-approve}. Requirements: - `spender` cannot be the zero address."
      },
      "balanceOf(address)": {
        "details": "See {IERC20-balanceOf}."
      },
      "decimals()": {
        "details": "Returns the number of decimals used to get its user representation. For example, if `decimals` equals `2`, a balance of `505` tokens should be displayed to a user as `5.05` (`505 / 10 ** 2`). Tokens usually opt for a value of 18, imitating the relationship between Ether and Wei. This is the value {ERC20} uses, unless this function is overridden; NOTE: This information is only used for _display_ purposes: it in no way affects any of the arithmetic of the contract, including {IERC20-balanceOf} and {IERC20-transfer}."
      },
      "decreaseAllowance(address,uint256)": {
        "details": "Atomically decreases the allowance granted to `spender` by the caller. This is an alternative to {approve} that can be used as a mitigation for problems described in {IERC20-approve}. Emits an {Approval} event indicating the updated allowance. Requirements: - `spender` cannot be the zero address. - `spender` must have allowance for the caller of at least `subtractedValue`."
      },
      "increaseAllowance(address,uint256)": {
        "details": "Atomically increases the allowance granted to `spender` by the caller. This is an alternative to {approve} that can be used as a mitigation for problems described in {IERC20-approve}. Emits an {Approval} event indicating the updated allowance. Requirements: - `spender` cannot be the zero address."
      },
      "name()": {
        "details": "Returns the name of the token."
      },
      "symbol()": {
        "details": "Returns the symbol of the token, usually a shorter version of the name."
      },
      "totalSupply()": {
        "details": "See {IERC20-totalSupply}."
      },
      "transfer(address,uint256)": {
        "details": "See {IERC20-transfer}. Requirements: - `recipient` cannot be the zero address. - the caller must have a balance of at least `amount`."
      },
      "transferFrom(address,address,uint256)": {
        "details": "See {IERC20-transferFrom}. Emits an {Approval} event indicating the updated allowance. This is not required by the EIP. See the note at the beginning of {ERC20}. Requirements: - `sender` and `recipient` cannot be the zero address. - `sender` must have a balance of at least `amount`. - the caller must have allowance for ``sender``'s tokens of at least `amount`."
      }
    },
    "version": 1
  },
  "userdoc": {
    "kind": "user",
    "methods": {},
    "version": 1
  }
}